{
  "_format": "hh3-artifact-1",
  "contractName": "MockOracle",
  "sourceName": "contracts/mocks/MockOracle.sol",
  "abi": [
    {
      "inputs": [],
      "stateMutability": "nonpayable",
      "type": "constructor"
    },
    {
      "anonymous": false,
      "inputs": [
        {
          "indexed": true,
          "internalType": "string",
          "name": "collectionSlug",
          "type": "string"
        },
        {
          "indexed": true,
          "internalType": "address",
          "name": "requester",
          "type": "address"
        },
        {
          "indexed": false,
          "internalType": "uint256",
          "name": "timestamp",
          "type": "uint256"
        }
      ],
      "name": "PriceUpdateRequested",
      "type": "event"
    },
    {
      "anonymous": false,
      "inputs": [
        {
          "indexed": true,
          "internalType": "string",
          "name": "collectionSlug",
          "type": "string"
        },
        {
          "indexed": false,
          "internalType": "uint256",
          "name": "price",
          "type": "uint256"
        },
        {
          "indexed": false,
          "internalType": "uint256",
          "name": "timestamp",
          "type": "uint256"
        }
      ],
      "name": "PriceUpdated",
      "type": "event"
    },
    {
      "inputs": [
        {
          "internalType": "string",
          "name": "collectionSlug",
          "type": "string"
        }
      ],
      "name": "getFloorPrice",
      "outputs": [
        {
          "internalType": "uint256",
          "name": "price",
          "type": "uint256"
        },
        {
          "internalType": "uint256",
          "name": "timestamp",
          "type": "uint256"
        },
        {
          "internalType": "bool",
          "name": "isValid",
          "type": "bool"
        }
      ],
      "stateMutability": "view",
      "type": "function"
    },
    {
      "inputs": [
        {
          "internalType": "string",
          "name": "collectionSlug",
          "type": "string"
        }
      ],
      "name": "invalidatePrice",
      "outputs": [],
      "stateMutability": "nonpayable",
      "type": "function"
    },
    {
      "inputs": [],
      "name": "owner",
      "outputs": [
        {
          "internalType": "address",
          "name": "",
          "type": "address"
        }
      ],
      "stateMutability": "view",
      "type": "function"
    },
    {
      "inputs": [
        {
          "internalType": "string",
          "name": "",
          "type": "string"
        }
      ],
      "name": "prices",
      "outputs": [
        {
          "internalType": "uint256",
          "name": "price",
          "type": "uint256"
        },
        {
          "internalType": "uint256",
          "name": "timestamp",
          "type": "uint256"
        },
        {
          "internalType": "bool",
          "name": "isValid",
          "type": "bool"
        }
      ],
      "stateMutability": "view",
      "type": "function"
    },
    {
      "inputs": [
        {
          "internalType": "string",
          "name": "collectionSlug",
          "type": "string"
        }
      ],
      "name": "requestPriceUpdate",
      "outputs": [],
      "stateMutability": "nonpayable",
      "type": "function"
    },
    {
      "inputs": [
        {
          "internalType": "string",
          "name": "collectionSlug",
          "type": "string"
        },
        {
          "internalType": "uint256",
          "name": "price",
          "type": "uint256"
        }
      ],
      "name": "setFloorPrice",
      "outputs": [],
      "stateMutability": "nonpayable",
      "type": "function"
    },
    {
      "inputs": [
        {
          "internalType": "string[]",
          "name": "collectionSlugs",
          "type": "string[]"
        },
        {
          "internalType": "uint256[]",
          "name": "_prices",
          "type": "uint256[]"
        }
      ],
      "name": "setFloorPrices",
      "outputs": [],
      "stateMutability": "nonpayable",
      "type": "function"
    }
  ],
  "bytecode": "0x608060405234801561000f575f80fd5b50600180546001600160a01b031916331790556108158061002f5f395ff3fe608060405234801561000f575f80fd5b506004361061007a575f3560e01c80638da5cb5b116100585780638da5cb5b146100db578063b1c8380314610106578063c3825f4b14610119578063f0e835a414610155575f80fd5b8063018816661461007e5780637085dfd1146100b357806389405488146100c8575b5f80fd5b61009161008c3660046105a4565b610168565b6040805193845260208401929092521515908201526060015b60405180910390f35b6100c66100c136600461066d565b6101c1565b005b6100c66100d6366004610739565b610371565b6001546100ee906001600160a01b031681565b6040516001600160a01b0390911681526020016100aa565b6100c66101143660046105a4565b610446565b6100916101273660046105a4565b80516020818301810180515f8252928201919093012091528054600182015460029092015490919060ff1683565b6100c66101633660046105a4565b610493565b5f805f805f8560405161017b919061077b565b90815260408051602092819003830181206060820183528054808352600182015494830185905260029091015460ff161515919092018190529097919650945092505050565b6001546001600160a01b031633146101f45760405162461bcd60e51b81526004016101eb906107a7565b60405180910390fd5b80518251146102375760405162461bcd60e51b815260206004820152600f60248201526e098cadccee8d040dad2e6dac2e8c6d608b1b60448201526064016101eb565b5f5b825181101561036c57604051806060016040528083838151811061025f5761025f6107cb565b60200260200101518152602001428152602001600115158152505f84838151811061028c5761028c6107cb565b60200260200101516040516102a1919061077b565b90815260408051602092819003830190208351815591830151600183015591909101516002909101805460ff191691151591909117905582518390829081106102ec576102ec6107cb565b6020026020010151604051610301919061077b565b60405180910390207f6e838f2a03741f5f2aff5480963b672fb0dd8430a4dc75db9b67ce009733c9fe83838151811061033c5761033c6107cb565b60200260200101514260405161035c929190918252602082015260400190565b60405180910390a2600101610239565b505050565b6001546001600160a01b0316331461039b5760405162461bcd60e51b81526004016101eb906107a7565b6040805160608101825282815242602082015260018183015290515f906103c390859061077b565b9081526040805160209281900383018120845181559284015160018401559201516002909101805460ff191691151591909117905561040390839061077b565b60408051918290038220838352426020840152917f6e838f2a03741f5f2aff5480963b672fb0dd8430a4dc75db9b67ce009733c9fe910160405180910390a25050565b604051339061045690839061077b565b604051908190038120428252907f2ffc6cd683712f1fd3322971c35108cf0b9007dc201fab9fffb6da790145c9b59060200160405180910390a350565b6001546001600160a01b031633146104bd5760405162461bcd60e51b81526004016101eb906107a7565b5f80826040516104cd919061077b565b908152604051908190036020019020600201805491151560ff1990921691909117905550565b634e487b7160e01b5f52604160045260245ffd5b604051601f8201601f1916810167ffffffffffffffff81118282101715610530576105306104f3565b604052919050565b5f82601f830112610547575f80fd5b813567ffffffffffffffff811115610561576105616104f3565b610574601f8201601f1916602001610507565b818152846020838601011115610588575f80fd5b816020850160208301375f918101602001919091529392505050565b5f602082840312156105b4575f80fd5b813567ffffffffffffffff8111156105ca575f80fd5b6105d684828501610538565b949350505050565b5f67ffffffffffffffff8211156105f7576105f76104f3565b5060051b60200190565b5f82601f830112610610575f80fd5b81356020610625610620836105de565b610507565b8083825260208201915060208460051b870101935086841115610646575f80fd5b602086015b84811015610662578035835291830191830161064b565b509695505050505050565b5f806040838503121561067e575f80fd5b823567ffffffffffffffff80821115610695575f80fd5b818501915085601f8301126106a8575f80fd5b813560206106b8610620836105de565b82815260059290921b840181019181810190898411156106d6575f80fd5b8286015b8481101561070c578035868111156106f0575f80fd5b6106fe8c86838b0101610538565b8452509183019183016106da565b5096505086013592505080821115610722575f80fd5b5061072f85828601610601565b9150509250929050565b5f806040838503121561074a575f80fd5b823567ffffffffffffffff811115610760575f80fd5b61076c85828601610538565b95602094909401359450505050565b5f82515f5b8181101561079a5760208186018101518583015201610780565b505f920191825250919050565b6020808252600a908201526927b7363c9037bbb732b960b11b604082015260600190565b634e487b7160e01b5f52603260045260245ffdfea26469706673582212209e40a81517c478b2b1034771fdf96863fb5f84038f5f72d644a45a9abb2e56c064736f6c63430008180033",
  "linkReferences": {},
  "deployedLinkReferences": {},
  "immutableReferences": {},
  "inputSourceName": "project/contracts/mocks/MockOracle.sol",
  "buildInfoId": "solc-0_8_24-be10617aa09941eb141f17dffeee6aabd2ac69d0"
}