{
  "_format": "hh3-artifact-1",
  "contractName": "FunctionsNftPriceConsumer",
  "sourceName": "contracts/FunctionsNftPriceConsumer.sol",
  "abi": [
    {
      "inputs": [
        {
          "internalType": "address",
          "name": "router",
          "type": "address"
        },
        {
          "internalType": "bytes32",
          "name": "_donId",
          "type": "bytes32"
        },
        {
          "internalType": "address",
          "name": "oracleAddress",
          "type": "address"
        }
      ],
      "stateMutability": "nonpayable",
      "type": "constructor"
    },
    {
      "inputs": [],
      "name": "EmptyArgs",
      "type": "error"
    },
    {
      "inputs": [],
      "name": "EmptySource",
      "type": "error"
    },
    {
      "inputs": [],
      "name": "NoInlineSecrets",
      "type": "error"
    },
    {
      "inputs": [],
      "name": "OnlyRouterCanFulfill",
      "type": "error"
    },
    {
      "inputs": [
        {
          "internalType": "bytes32",
          "name": "requestId",
          "type": "bytes32"
        }
      ],
      "name": "UnexpectedRequestID",
      "type": "error"
    },
    {
      "anonymous": false,
      "inputs": [
        {
          "indexed": true,
          "internalType": "bytes32",
          "name": "requestId",
          "type": "bytes32"
        },
        {
          "indexed": false,
          "internalType": "string",
          "name": "slug",
          "type": "string"
        },
        {
          "indexed": false,
          "internalType": "uint256",
          "name": "priceWei",
          "type": "uint256"
        }
      ],
      "name": "Fulfilled",
      "type": "event"
    },
    {
      "anonymous": false,
      "inputs": [
        {
          "indexed": true,
          "internalType": "address",
          "name": "from",
          "type": "address"
        },
        {
          "indexed": true,
          "internalType": "address",
          "name": "to",
          "type": "address"
        }
      ],
      "name": "OwnershipTransferRequested",
      "type": "event"
    },
    {
      "anonymous": false,
      "inputs": [
        {
          "indexed": true,
          "internalType": "address",
          "name": "from",
          "type": "address"
        },
        {
          "indexed": true,
          "internalType": "address",
          "name": "to",
          "type": "address"
        }
      ],
      "name": "OwnershipTransferred",
      "type": "event"
    },
    {
      "anonymous": false,
      "inputs": [
        {
          "indexed": true,
          "internalType": "bytes32",
          "name": "requestId",
          "type": "bytes32"
        },
        {
          "indexed": false,
          "internalType": "string",
          "name": "slug",
          "type": "string"
        }
      ],
      "name": "PriceRequested",
      "type": "event"
    },
    {
      "anonymous": false,
      "inputs": [
        {
          "indexed": true,
          "internalType": "bytes32",
          "name": "id",
          "type": "bytes32"
        }
      ],
      "name": "RequestFulfilled",
      "type": "event"
    },
    {
      "anonymous": false,
      "inputs": [
        {
          "indexed": true,
          "internalType": "bytes32",
          "name": "id",
          "type": "bytes32"
        }
      ],
      "name": "RequestSent",
      "type": "event"
    },
    {
      "inputs": [],
      "name": "acceptOwnership",
      "outputs": [],
      "stateMutability": "nonpayable",
      "type": "function"
    },
    {
      "inputs": [],
      "name": "callbackGasLimit",
      "outputs": [
        {
          "internalType": "uint32",
          "name": "",
          "type": "uint32"
        }
      ],
      "stateMutability": "view",
      "type": "function"
    },
    {
      "inputs": [],
      "name": "donId",
      "outputs": [
        {
          "internalType": "bytes32",
          "name": "",
          "type": "bytes32"
        }
      ],
      "stateMutability": "view",
      "type": "function"
    },
    {
      "inputs": [
        {
          "internalType": "bytes32",
          "name": "requestId",
          "type": "bytes32"
        },
        {
          "internalType": "bytes",
          "name": "response",
          "type": "bytes"
        },
        {
          "internalType": "bytes",
          "name": "err",
          "type": "bytes"
        }
      ],
      "name": "handleOracleFulfillment",
      "outputs": [],
      "stateMutability": "nonpayable",
      "type": "function"
    },
    {
      "inputs": [],
      "name": "lastError",
      "outputs": [
        {
          "internalType": "bytes",
          "name": "",
          "type": "bytes"
        }
      ],
      "stateMutability": "view",
      "type": "function"
    },
    {
      "inputs": [],
      "name": "lastRequestId",
      "outputs": [
        {
          "internalType": "bytes32",
          "name": "",
          "type": "bytes32"
        }
      ],
      "stateMutability": "view",
      "type": "function"
    },
    {
      "inputs": [],
      "name": "lastResponse",
      "outputs": [
        {
          "internalType": "bytes",
          "name": "",
          "type": "bytes"
        }
      ],
      "stateMutability": "view",
      "type": "function"
    },
    {
      "inputs": [],
      "name": "lastSlug",
      "outputs": [
        {
          "internalType": "string",
          "name": "",
          "type": "string"
        }
      ],
      "stateMutability": "view",
      "type": "function"
    },
    {
      "inputs": [],
      "name": "oracle",
      "outputs": [
        {
          "internalType": "contract INftFloorOracleSetter",
          "name": "",
          "type": "address"
        }
      ],
      "stateMutability": "view",
      "type": "function"
    },
    {
      "inputs": [],
      "name": "owner",
      "outputs": [
        {
          "internalType": "address",
          "name": "",
          "type": "address"
        }
      ],
      "stateMutability": "view",
      "type": "function"
    },
    {
      "inputs": [
        {
          "internalType": "uint64",
          "name": "subscriptionId",
          "type": "uint64"
        },
        {
          "internalType": "string",
          "name": "slug",
          "type": "string"
        },
        {
          "internalType": "string",
          "name": "openSeaApiKey",
          "type": "string"
        }
      ],
      "name": "requestPrice",
      "outputs": [
        {
          "internalType": "bytes32",
          "name": "requestId",
          "type": "bytes32"
        }
      ],
      "stateMutability": "nonpayable",
      "type": "function"
    },
    {
      "inputs": [
        {
          "internalType": "uint32",
          "name": "gasLimit",
          "type": "uint32"
        }
      ],
      "name": "setCallbackGasLimit",
      "outputs": [],
      "stateMutability": "nonpayable",
      "type": "function"
    },
    {
      "inputs": [
        {
          "internalType": "address",
          "name": "to",
          "type": "address"
        }
      ],
      "name": "transferOwnership",
      "outputs": [],
      "stateMutability": "nonpayable",
      "type": "function"
    }
  ],
  "bytecode": "0x60e06040526001805463ffffffff60a01b191661249f60a51b17905534801562000027575f80fd5b5060405162001d3838038062001d388339810160408190526200004a91620001c1565b6001600160a01b03831660805233805f81620000ad5760405162461bcd60e51b815260206004820152601860248201527f43616e6e6f7420736574206f776e657220746f207a65726f000000000000000060448201526064015b60405180910390fd5b5f80546001600160a01b0319166001600160a01b0384811691909117909155811615620000df57620000df81620000fb565b50505060a0919091526001600160a01b031660c05250620001ff565b336001600160a01b03821603620001555760405162461bcd60e51b815260206004820152601760248201527f43616e6e6f74207472616e7366657220746f2073656c660000000000000000006044820152606401620000a4565b600180546001600160a01b0319166001600160a01b038381169182179092555f8054604051929316917fed8889f560326eb138920d842192f0eb3dd22b4f139c87a2c57538e05bae12789190a350565b80516001600160a01b0381168114620001bc575f80fd5b919050565b5f805f60608486031215620001d4575f80fd5b620001df84620001a5565b925060208401519150620001f660408501620001a5565b90509250925092565b60805160a05160c051611af96200023f5f395f8181610160015261069101525f81816101af015261040701525f81816102130152610a8d0152611af95ff3fe608060405234801561000f575f80fd5b50600436106100cb575f3560e01c80637dc0d1d01161008857806390f3e91f1161006357806390f3e91f146101d1578063a4eb718c146101d9578063f2fde38b146101ec578063fc2a88c3146101ff575f80fd5b80637dc0d1d01461015b5780638da5cb5b1461019a5780638dbe7b9d146101aa575f80fd5b80630ca76175146100cf5780631c85bf03146100e457806324f746971461010a57806329f0de3f1461013657806362747e421461014b57806379ba509714610153575b5f80fd5b6100e26100dd3660046111ab565b610208565b005b6100f76100f2366004611256565b61028b565b6040519081526020015b60405180910390f35b60015461012190600160a01b900463ffffffff1681565b60405163ffffffff9091168152602001610101565b61013e610479565b604051610101919061131b565b61013e610505565b6100e2610512565b6101827f000000000000000000000000000000000000000000000000000000000000000081565b6040516001600160a01b039091168152602001610101565b5f546001600160a01b0316610182565b6100f77f000000000000000000000000000000000000000000000000000000000000000081565b61013e6105c0565b6100e26101e736600461132d565b6105cd565b6100e26101fa366004611350565b6105fb565b6100f760025481565b336001600160a01b037f000000000000000000000000000000000000000000000000000000000000000016146102515760405163c6829f8360e01b815260040160405180910390fd5b61025c83838361060f565b60405183907f85e1543bf2f84fe80c6badbce3648c8539ad1df4d2b3d822938ca0538be727e6905f90a2505050565b5f610294610738565b6102d26040805160e08101909152805f81526020015f81526020015f8152602001606081526020016060815260200160608152602001606081525090565b6102f8604051806102e001604052806102b081526020016118146102b09139829061078c565b604080516002808252606082019092525f91816020015b606081526020019060019003908161030f57905050905086868080601f0160208091040260200160405190810160405280939291908181526020018383808284375f92018290525085518694509092501515905061036f5761036f611376565b602002602001018190525084848080601f0160208091040260200160405190810160405280939291908181526020018383808284375f920191909152505083518492506001915081106103c4576103c4611376565b60209081029190910101526103d9828261079c565b60036103e687898361140d565b5061042b6103f3836107c5565b6001548a90600160a01b900463ffffffff167f0000000000000000000000000000000000000000000000000000000000000000610a89565b60028190556040517fa0c89aea9ec5e741142b38662db947d80ba01d31578afca0dae87b305b8f465490610462908a908a906114c6565b60405180910390a250506002549695505050505050565b600580546104869061138a565b80601f01602080910402602001604051908101604052809291908181526020018280546104b29061138a565b80156104fd5780601f106104d4576101008083540402835291602001916104fd565b820191905f5260205f20905b8154815290600101906020018083116104e057829003601f168201915b505050505081565b600480546104869061138a565b6001546001600160a01b0316331461056a5760405162461bcd60e51b815260206004820152601660248201527526bab9ba10313290383937b837b9b2b21037bbb732b960511b60448201526064015b60405180910390fd5b5f8054336001600160a01b0319808316821784556001805490911690556040516001600160a01b0390921692909183917f8be0079c531659141344cd1fd0a4f28419497f9722a3daafe3b4186f6b6457e091a350565b600380546104869061138a565b6105d5610738565b6001805463ffffffff909216600160a01b0263ffffffff60a01b19909216919091179055565b610603610738565b61060c81610b56565b50565b60025483146106345760405163d068bf5b60e01b815260048101849052602401610561565b600461064083826114f4565b50600561064d82826114f4565b50805115801561065d57505f8251115b15610733575f8280602001905181019061067791906115b3565b6040516311280a9160e31b81529091506001600160a01b037f000000000000000000000000000000000000000000000000000000000000000016906389405488906106c99060039085906004016115ca565b5f604051808303815f87803b1580156106e0575f80fd5b505af11580156106f2573d5f803e3d5ffd5b50505050837f08c65b09a3d55284d66ccc1d1bcab8eb1a12159d4079307e36c1edc1e7499e286003836040516107299291906115ca565b60405180910390a2505b505050565b5f546001600160a01b0316331461078a5760405162461bcd60e51b815260206004820152601660248201527527b7363c9031b0b63630b1363290313c9037bbb732b960511b6044820152606401610561565b565b610798825f8084610bfe565b5050565b80515f036107bd5760405163fe936cb760e01b815260040160405180910390fd5b60a090910152565b60605f6107d3610100610c7b565b905061080c6040518060400160405280600c81526020016b31b7b232a637b1b0ba34b7b760a11b81525082610c9b90919063ffffffff16565b825161082a9060028111156108235761082361165c565b8290610cb4565b6040805180820190915260088152676c616e677561676560c01b6020820152610854908290610c9b565b604083015161086b9080156108235761082361165c565b604080518082019091526006815265736f7572636560d01b6020820152610893908290610c9b565b60608301516108a3908290610c9b565b60a0830151511561092e576040805180820190915260048152636172677360e01b60208201526108d4908290610c9b565b6108dd81610ced565b5f5b8360a00151518110156109245761091c8460a00151828151811061090557610905611376565b602002602001015183610c9b90919063ffffffff16565b6001016108df565b5061092e81610d11565b608083015151156109f1575f836020015160028111156109505761095061165c565b0361096e5760405163a80d31f760e01b815260040160405180910390fd5b60408051808201909152600f81526e39b2b1b932ba39a637b1b0ba34b7b760891b602082015261099f908290610c9b565b6109b8836020015160028111156108235761082361165c565b6040805180820190915260078152667365637265747360c81b60208201526109e1908290610c9b565b60808301516109f1908290610d2f565b60c08301515115610a815760408051808201909152600981526862797465734172677360b81b6020820152610a27908290610c9b565b610a3081610ced565b5f5b8360c0015151811015610a7757610a6f8460c001518281518110610a5857610a58611376565b602002602001015183610d2f90919063ffffffff16565b600101610a32565b50610a8181610d11565b515192915050565b5f807f00000000000000000000000000000000000000000000000000000000000000006001600160a01b031663461d27628688600188886040518663ffffffff1660e01b8152600401610ae0959493929190611670565b6020604051808303815f875af1158015610afc573d5f803e3d5ffd5b505050506040513d601f19601f82011682018060405250810190610b2091906115b3565b60405190915081907f1131472297a800fee664d1d89cfa8f7676ff07189ecc53f80bbb5f4969099db8905f90a295945050505050565b336001600160a01b03821603610bae5760405162461bcd60e51b815260206004820152601760248201527f43616e6e6f74207472616e7366657220746f2073656c660000000000000000006044820152606401610561565b600180546001600160a01b0319166001600160a01b038381169182179092555f8054604051929316917fed8889f560326eb138920d842192f0eb3dd22b4f139c87a2c57538e05bae12789190a350565b80515f03610c1f576040516322ce3edd60e01b815260040160405180910390fd5b83836002811115610c3257610c3261165c565b90816002811115610c4557610c4561165c565b90525060408401828015610c5b57610c5b61165c565b90818015610c6b57610c6b61165c565b9052506060909301929092525050565b610c836110dc565b8051610c8f9083610d3c565b505f6020820152919050565b610ca88260038351610db3565b81516107339082610ed2565b8151610cc19060c2610ef9565b506107988282604051602001610cd991815260200190565b604051602081830303815290604052610d2f565b610cf8816004610f60565b600181602001818151610d0b91906116cc565b90525050565b610d1c816007610f60565b600181602001818151610d0b91906116df565b610ca88260028351610db3565b60408051808201909152606081525f6020820152610d5b6020836116f2565b15610d8357610d6b6020836116f2565b610d769060206116df565b610d8090836116cc565b91505b60208084018390526040518085525f8152908184010181811015610da5575f80fd5b604052508290505b92915050565b6017816001600160401b031611610ddf578251610dd99060e0600585901b168317610ef9565b50505050565b60ff816001600160401b031611610e1f578251610e07906018611fe0600586901b1617610ef9565b508251610dd9906001600160401b0383166001610f77565b61ffff816001600160401b031611610e60578251610e48906019611fe0600586901b1617610ef9565b508251610dd9906001600160401b0383166002610f77565b63ffffffff816001600160401b031611610ea3578251610e8b90601a611fe0600586901b1617610ef9565b508251610dd9906001600160401b0383166004610f77565b8251610eba90601b611fe0600586901b1617610ef9565b508251610dd9906001600160401b0383166008610f77565b60408051808201909152606081525f6020820152610ef283838451610ff9565b9392505050565b60408051808201909152606081525f60208201528251515f610f1c8260016116cc565b905084602001518210610f3d57610f3d85610f38836002611711565b6110c5565b8451602083820101858153508051821115610f56578181525b5093949350505050565b815161073390601f611fe0600585901b1617610ef9565b60408051808201909152606081525f60208201528351515f610f9982856116cc565b90508560200151811115610fb657610fb686610f38836002611711565b5f6001610fc586610100611808565b610fcf91906116df565b90508651828101878319825116178152508051831115610fed578281525b50959695505050505050565b60408051808201909152606081525f6020820152825182111561101a575f80fd5b8351515f61102884836116cc565b905085602001518111156110455761104586610f38836002611711565b85518051838201602001915f918085111561105e578482525b505050602086015b6020861061109e578051825261107d6020836116cc565b915061108a6020826116cc565b90506110976020876116df565b9550611066565b5181515f1960208890036101000a0190811690199190911617905250849150509392505050565b81516110d18383610d3c565b50610dd98382610ed2565b60405180604001604052806111036040518060400160405280606081526020015f81525090565b81526020015f81525090565b634e487b7160e01b5f52604160045260245ffd5b5f82601f830112611132575f80fd5b81356001600160401b038082111561114c5761114c61110f565b604051601f8301601f19908116603f011681019082821181831017156111745761117461110f565b8160405283815286602085880101111561118c575f80fd5b836020870160208301375f602085830101528094505050505092915050565b5f805f606084860312156111bd575f80fd5b8335925060208401356001600160401b03808211156111da575f80fd5b6111e687838801611123565b935060408601359150808211156111fb575f80fd5b5061120886828701611123565b9150509250925092565b5f8083601f840112611222575f80fd5b5081356001600160401b03811115611238575f80fd5b60208301915083602082850101111561124f575f80fd5b9250929050565b5f805f805f6060868803121561126a575f80fd5b85356001600160401b038082168214611281575f80fd5b90955060208701359080821115611296575f80fd5b6112a289838a01611212565b909650945060408801359150808211156112ba575f80fd5b506112c788828901611212565b969995985093965092949392505050565b5f81518084525f5b818110156112fc576020818501810151868301820152016112e0565b505f602082860101526020601f19601f83011685010191505092915050565b602081525f610ef260208301846112d8565b5f6020828403121561133d575f80fd5b813563ffffffff81168114610ef2575f80fd5b5f60208284031215611360575f80fd5b81356001600160a01b0381168114610ef2575f80fd5b634e487b7160e01b5f52603260045260245ffd5b600181811c9082168061139e57607f821691505b6020821081036113bc57634e487b7160e01b5f52602260045260245ffd5b50919050565b601f82111561073357805f5260205f20601f840160051c810160208510156113e75750805b601f840160051c820191505b81811015611406575f81556001016113f3565b5050505050565b6001600160401b038311156114245761142461110f565b61143883611432835461138a565b836113c2565b5f601f841160018114611469575f85156114525750838201355b5f19600387901b1c1916600186901b178355611406565b5f83815260208120601f198716915b828110156114985786850135825560209485019460019092019101611478565b50868210156114b4575f1960f88860031b161c19848701351681555b505060018560011b0183555050505050565b60208152816020820152818360408301375f818301604090810191909152601f909201601f19160101919050565b81516001600160401b0381111561150d5761150d61110f565b6115218161151b845461138a565b846113c2565b602080601f831160018114611554575f841561153d5750858301515b5f19600386901b1c1916600185901b1785556115ab565b5f85815260208120601f198616915b8281101561158257888601518255948401946001909101908401611563565b508582101561159f57878501515f19600388901b60f8161c191681555b505060018460011b0185555b505050505050565b5f602082840312156115c3575f80fd5b5051919050565b604081525f8084546115db8161138a565b806040860152606060018084165f81146115fc576001811461161857611647565b60ff1985166060890152606084151560051b8901019550611647565b895f526020805f205f5b8681101561163d5781548b8201870152908401908201611622565b8a01606001975050505b50505050506020929092019290925292915050565b634e487b7160e01b5f52602160045260245ffd5b6001600160401b038616815260a060208201525f61169160a08301876112d8565b61ffff9590951660408301525063ffffffff92909216606083015260809091015292915050565b634e487b7160e01b5f52601160045260245ffd5b80820180821115610dad57610dad6116b8565b81810381811115610dad57610dad6116b8565b5f8261170c57634e487b7160e01b5f52601260045260245ffd5b500690565b8082028115828204841417610dad57610dad6116b8565b600181815b8085111561176257815f1904821115611748576117486116b8565b8085161561175557918102915b93841c939080029061172d565b509250929050565b5f8261177857506001610dad565b8161178457505f610dad565b816001811461179a57600281146117a4576117c0565b6001915050610dad565b60ff8411156117b5576117b56116b8565b50506001821b610dad565b5060208310610133831016604e8410600b84101617156117e3575081810a610dad565b6117ed8383611728565b805f1904821115611800576118006116b8565b029392505050565b5f610ef2838361176a56fe636f6e737420736c7567203d20617267735b305d3b0a636f6e7374206170694b6579203d20617267735b315d3b0a636f6e73742072657370203d2061776169742046756e6374696f6e732e6d616b654874747052657175657374287b0a202075726c3a206068747470733a2f2f6170692e6f70656e7365612e696f2f6170692f76322f636f6c6c656374696f6e732f247b736c75677d2f7374617473602c0a20206d6574686f643a2027474554272c0a2020686561646572733a206170694b6579203f207b2027582d4150492d4b4559273a206170694b6579207d203a207b7d0a7d293b0a69662028726573702e6572726f7229207b207468726f77204572726f72282748545450206572726f7227293b207d0a636f6e73742064617461203d20726573702e646174613b0a2f2f20417474656d707420746f207265616420666c6f6f7220707269636520696e204554483b2066616c6c6261636b20746f2030206f6e206d697373696e670a6c657420666c6f6f72203d20303b0a696620286461746120262620646174612e746f74616c20262620646174612e746f74616c2e666c6f6f725f707269636529207b0a2020666c6f6f72203d204e756d62657228646174612e746f74616c2e666c6f6f725f7072696365293b0a7d20656c736520696620286461746120262620646174612e737461747320262620646174612e73746174732e666c6f6f725f707269636529207b0a2020666c6f6f72203d204e756d62657228646174612e73746174732e666c6f6f725f7072696365293b0a7d0a2f2f205363616c6520746f20316531382028776569290a636f6e7374207363616c6564203d20426967496e74284d6174682e666c6f6f7228666c6f6f72202a203165313829293b0a72657475726e2046756e6374696f6e732e656e636f646555696e74323536287363616c6564293b0aa26469706673582212209450e8352bd90d674fedb8f576f783e247004135de630a84df44bbd02d07f8d964736f6c63430008180033",
  "linkReferences": {},
  "deployedLinkReferences": {},
  "immutableReferences": {
    "17": [
      {
        "length": 32,
        "start": 531
      },
      {
        "length": 32,
        "start": 2701
      }
    ],
    "2294": [
      {
        "length": 32,
        "start": 431
      },
      {
        "length": 32,
        "start": 1031
      }
    ],
    "2300": [
      {
        "length": 32,
        "start": 352
      },
      {
        "length": 32,
        "start": 1681
      }
    ]
  },
  "inputSourceName": "project/contracts/FunctionsNftPriceConsumer.sol",
  "buildInfoId": "solc-0_8_24-bc3b7da04a840d6c32edab6dbbf6ccd9c8daefae"
}