{
  "_format": "hh3-artifact-1",
  "contractName": "MarketResolver",
  "sourceName": "contracts/MarketResolver.sol",
  "abi": [
    {
      "inputs": [
        {
          "internalType": "address",
          "name": "_oracle",
          "type": "address"
        }
      ],
      "stateMutability": "nonpayable",
      "type": "constructor"
    },
    {
      "inputs": [],
      "name": "InvalidMarketAddress",
      "type": "error"
    },
    {
      "inputs": [],
      "name": "MarketAlreadyResolved",
      "type": "error"
    },
    {
      "inputs": [],
      "name": "OnlyAuthorizedResolver",
      "type": "error"
    },
    {
      "inputs": [],
      "name": "OnlyOwner",
      "type": "error"
    },
    {
      "inputs": [
        {
          "internalType": "address",
          "name": "market",
          "type": "address"
        },
        {
          "internalType": "string",
          "name": "reason",
          "type": "string"
        }
      ],
      "name": "ResolutionFailed",
      "type": "error"
    },
    {
      "anonymous": false,
      "inputs": [
        {
          "indexed": false,
          "internalType": "uint256",
          "name": "marketsResolved",
          "type": "uint256"
        },
        {
          "indexed": false,
          "internalType": "uint256",
          "name": "marketsFailed",
          "type": "uint256"
        }
      ],
      "name": "BatchResolutionCompleted",
      "type": "event"
    },
    {
      "anonymous": false,
      "inputs": [
        {
          "indexed": true,
          "internalType": "address",
          "name": "marketAddress",
          "type": "address"
        },
        {
          "indexed": false,
          "internalType": "string",
          "name": "collectionSlug",
          "type": "string"
        },
        {
          "indexed": false,
          "internalType": "uint256",
          "name": "finalPrice",
          "type": "uint256"
        },
        {
          "indexed": false,
          "internalType": "bool",
          "name": "outcome",
          "type": "bool"
        }
      ],
      "name": "MarketResolved",
      "type": "event"
    },
    {
      "anonymous": false,
      "inputs": [
        {
          "indexed": true,
          "internalType": "address",
          "name": "newOracle",
          "type": "address"
        }
      ],
      "name": "OracleUpdated",
      "type": "event"
    },
    {
      "anonymous": false,
      "inputs": [
        {
          "indexed": true,
          "internalType": "address",
          "name": "resolver",
          "type": "address"
        }
      ],
      "name": "ResolverAuthorized",
      "type": "event"
    },
    {
      "anonymous": false,
      "inputs": [
        {
          "indexed": true,
          "internalType": "address",
          "name": "resolver",
          "type": "address"
        }
      ],
      "name": "ResolverRevoked",
      "type": "event"
    },
    {
      "inputs": [
        {
          "internalType": "address",
          "name": "_resolver",
          "type": "address"
        }
      ],
      "name": "authorizeResolver",
      "outputs": [],
      "stateMutability": "nonpayable",
      "type": "function"
    },
    {
      "inputs": [
        {
          "internalType": "address",
          "name": "",
          "type": "address"
        }
      ],
      "name": "authorizedResolvers",
      "outputs": [
        {
          "internalType": "bool",
          "name": "",
          "type": "bool"
        }
      ],
      "stateMutability": "view",
      "type": "function"
    },
    {
      "inputs": [
        {
          "internalType": "address[]",
          "name": "_markets",
          "type": "address[]"
        },
        {
          "internalType": "uint256[]",
          "name": "_prices",
          "type": "uint256[]"
        }
      ],
      "name": "batchResolveMarkets",
      "outputs": [
        {
          "internalType": "uint256",
          "name": "successCount",
          "type": "uint256"
        },
        {
          "internalType": "uint256",
          "name": "failureCount",
          "type": "uint256"
        }
      ],
      "stateMutability": "nonpayable",
      "type": "function"
    },
    {
      "inputs": [
        {
          "internalType": "address[]",
          "name": "_markets",
          "type": "address[]"
        }
      ],
      "name": "getMarketsReadyForResolution",
      "outputs": [
        {
          "internalType": "address[]",
          "name": "readyMarkets",
          "type": "address[]"
        }
      ],
      "stateMutability": "view",
      "type": "function"
    },
    {
      "inputs": [
        {
          "internalType": "address",
          "name": "_marketAddress",
          "type": "address"
        }
      ],
      "name": "isMarketReadyForResolution",
      "outputs": [
        {
          "internalType": "bool",
          "name": "ready",
          "type": "bool"
        },
        {
          "internalType": "string",
          "name": "reason",
          "type": "string"
        }
      ],
      "stateMutability": "view",
      "type": "function"
    },
    {
      "inputs": [],
      "name": "oracle",
      "outputs": [
        {
          "internalType": "contract IOracle",
          "name": "",
          "type": "address"
        }
      ],
      "stateMutability": "view",
      "type": "function"
    },
    {
      "inputs": [],
      "name": "owner",
      "outputs": [
        {
          "internalType": "address",
          "name": "",
          "type": "address"
        }
      ],
      "stateMutability": "view",
      "type": "function"
    },
    {
      "inputs": [
        {
          "internalType": "address",
          "name": "_marketAddress",
          "type": "address"
        },
        {
          "internalType": "uint256",
          "name": "_finalPrice",
          "type": "uint256"
        }
      ],
      "name": "resolveMarketManual",
      "outputs": [],
      "stateMutability": "nonpayable",
      "type": "function"
    },
    {
      "inputs": [
        {
          "internalType": "address",
          "name": "_marketAddress",
          "type": "address"
        }
      ],
      "name": "resolveMarketWithOracle",
      "outputs": [],
      "stateMutability": "nonpayable",
      "type": "function"
    },
    {
      "inputs": [
        {
          "internalType": "address",
          "name": "",
          "type": "address"
        }
      ],
      "name": "resolvedMarkets",
      "outputs": [
        {
          "internalType": "bool",
          "name": "",
          "type": "bool"
        }
      ],
      "stateMutability": "view",
      "type": "function"
    },
    {
      "inputs": [
        {
          "internalType": "address",
          "name": "_resolver",
          "type": "address"
        }
      ],
      "name": "revokeResolver",
      "outputs": [],
      "stateMutability": "nonpayable",
      "type": "function"
    },
    {
      "inputs": [
        {
          "internalType": "address",
          "name": "_oracle",
          "type": "address"
        }
      ],
      "name": "setOracle",
      "outputs": [],
      "stateMutability": "nonpayable",
      "type": "function"
    },
    {
      "inputs": [
        {
          "internalType": "address",
          "name": "_newOwner",
          "type": "address"
        }
      ],
      "name": "transferOwnership",
      "outputs": [],
      "stateMutability": "nonpayable",
      "type": "function"
    }
  ],
  "bytecode": "0x608060405234801561000f575f80fd5b5060405161175638038061175683398101604081905261002e9161009c565b5f8054336001600160a01b031991821681178355600180549092166001600160a01b03851617825580835260026020526040808420805460ff1916909317909255905190917f2c3901e3fb770eb03de86a9d260bd78efb1582f427318c892172df56e319811991a2506100c9565b5f602082840312156100ac575f80fd5b81516001600160a01b03811681146100c2575f80fd5b9392505050565b611680806100d65f395ff3fe608060405234801561000f575f80fd5b50600436106100cb575f3560e01c806387a8917c11610088578063af7b718a11610063578063af7b718a146101e7578063afcc55f9146101fa578063d794d2d91461020d578063f2fde38b1461022f575f80fd5b806387a8917c1461018d5780638da5cb5b146101b5578063a9e8f862146101c7575f80fd5b806307a7b50f146100cf5780635f051377146100e457806362ee6a4c1461011b5780637adbf9731461012e5780637dc0d1d014610141578063817488d11461016c575b5f80fd5b6100e26100dd3660046110b4565b610242565b005b6101066100f23660046110b4565b60036020525f908152604090205460ff1681565b60405190151581526020015b60405180910390f35b6100e26101293660046110b4565b61062f565b6100e261013c3660046110b4565b6106a1565b600154610154906001600160a01b031681565b6040516001600160a01b039091168152602001610112565b61017f61017a3660046110b4565b610714565b604051610112929190611121565b6101a061019b36600461118b565b610931565b60408051928352602083019190915201610112565b5f54610154906001600160a01b031681565b6101da6101d53660046111f2565b610adf565b6040516101129190611231565b6100e26101f53660046110b4565b610cde565b6100e261020836600461127d565b610d53565b61010661021b3660046110b4565b60026020525f908152604090205460ff1681565b6100e261023d3660046110b4565b61104e565b335f9081526002602052604090205460ff1615801561026b57505f546001600160a01b03163314155b156102895760405163d23e31e960e01b815260040160405180910390fd5b6001600160a01b0381166102b05760405163f8c197f160e01b815260040160405180910390fd5b6001600160a01b0381165f9081526003602052604090205460ff16156102e95760405163aa43cb2d60e01b815260040160405180910390fd5b6001546001600160a01b031661034f57604080516313fcecd560e21b81526001600160a01b038316600482015260248101919091526014604482015273139bc81bdc9858db194818dbdb999a59dd5c995960621b60648201526084015b60405180910390fd5b5f8190505f80826001600160a01b03166323341a056040518163ffffffff1660e01b81526004015f60405180830381865afa158015610390573d5f803e3d5ffd5b505050506040513d5f823e601f3d908101601f191682016040526103b79190810190611368565b505050505050935050925050804210156103e657836040516313fcecd560e21b81526004016103469190611421565b60015460405162c40b3360e11b81525f9182916001600160a01b039091169063018816669061041990879060040161146a565b606060405180830381865afa158015610434573d5f803e3d5ffd5b505050506040513d601f19601f82011682018060405250810190610458919061147c565b9250509150806104b357604080516313fcecd560e21b81526001600160a01b038816600482015260248101919091526014604482015273496e76616c6964206f7261636c6520707269636560601b6064820152608401610346565b604051636399d03d60e01b8152600481018390526001600160a01b03861690636399d03d906024015f604051808303815f87803b1580156104f2575f80fd5b505af1925050508015610503575060015b6105555761050f6114ae565b806308c379a00361054b57506105236114c7565b8061052e575061054d565b86816040516313fcecd560e21b8152600401610346929190611550565b505b3d5f803e3d5ffd5b6001600160a01b038087165f908152600360209081526040808320805460ff19166001179055805163370e19e760e21b81529051929389169263dc38679c926004808401939192918290030181865afa1580156105b4573d5f803e3d5ffd5b505050506040513d601f19601f820116820180604052508101906105d89190611573565b90505f8184119050876001600160a01b03167fb34551c1b6827a3cb047ace35fa9a1ad9e76e2abd318d671ce2a5810c1e8cb2887868460405161061d9392919061158a565b60405180910390a25050505050505050565b5f546001600160a01b0316331461065957604051635fc483c560e01b815260040160405180910390fd5b6001600160a01b0381165f81815260026020526040808220805460ff19169055517f6cc76de175eb7c3679f8d4c3529e23883784a40e1f9d7f54e8a9f97115aab3479190a250565b5f546001600160a01b031633146106cb57604051635fc483c560e01b815260040160405180910390fd5b600180546001600160a01b0319166001600160a01b0383169081179091556040517f3df77beb5db05fcdd70a30fc8adf3f83f9501b68579455adbd100b8180940394905f90a250565b5f60606001600160a01b03831661075b575050604080518082019091526016815275496e76616c6964206d61726b6574206164647265737360501b60208201525f92909150565b6001600160a01b0383165f9081526003602052604090205460ff16156107ab57505060408051808201909152601081526f105b1c9958591e481c995cdbdb1d995960821b60208201525f92909150565b826001600160a01b03166323341a056040518163ffffffff1660e01b81526004015f60405180830381865afa92505050801561080857506040513d5f823e601f3d908101601f191682016040526108059190810190611368565b60015b61084957505060408051808201909152601981527f4661696c656420746f20676574206d61726b657420696e666f0000000000000060208201525f92909150565b5f86600181111561085c5761085c6115b3565b1461089d575f6040518060400160405280600f81526020016e26b0b935b2ba103737ba1037b832b760891b8152509b509b5050505050505050505050915091565b864210156108ef575f6040518060400160405280601b81526020017f5265736f6c7574696f6e2074696d65206e6f74207265616368656400000000008152509b509b5050505050505050505050915091565b6001604051806040016040528060148152602001732932b0b23c903337b9103932b9b7b63aba34b7b760611b8152509b509b5050505050505050505050915091565b335f90815260026020526040812054819060ff1615801561095c57505f546001600160a01b03163314155b1561097a5760405163d23e31e960e01b815260040160405180910390fd5b8483146109ca57604080516313fcecd560e21b81525f600482015260248101919091526015604482015274082e4e4c2f240d8cadccee8d040dad2e6dac2e8c6d605b1b6064820152608401610346565b5f5b85811015610a9c573063afcc55f98888848181106109ec576109ec6115c7565b9050602002016020810190610a0191906110b4565b878785818110610a1357610a136115c7565b6040516001600160e01b031960e087901b1681526001600160a01b03909416600485015260200291909101356024830152506044015f604051808303815f87803b158015610a5f575f80fd5b505af1925050508015610a70575060015b610a865781610a7e816115db565b925050610a94565b82610a90816115db565b9350505b6001016109cc565b5060408051838152602081018390527f3f991a2220cf7452b50f004311717882c951fbc085fcb61770d76cbd9c09698f910160405180910390a194509492505050565b60605f808367ffffffffffffffff811115610afc57610afc6112a5565b604051908082528060200260200182016040528015610b25578160200160208202803683370190505b5090505f5b84811015610c39575f3063817488d1888885818110610b4b57610b4b6115c7565b9050602002016020810190610b6091906110b4565b6040516001600160e01b031960e084901b1681526001600160a01b0390911660048201526024015f60405180830381865afa158015610ba1573d5f803e3d5ffd5b505050506040513d5f823e601f3d908101601f19168201604052610bc891908101906115ff565b5090508015610c3057868683818110610be357610be36115c7565b9050602002016020810190610bf891906110b4565b838581518110610c0a57610c0a6115c7565b6001600160a01b039092166020928302919091019091015283610c2c816115db565b9450505b50600101610b2a565b508167ffffffffffffffff811115610c5357610c536112a5565b604051908082528060200260200182016040528015610c7c578160200160208202803683370190505b5092505f5b82811015610cd557818181518110610c9b57610c9b6115c7565b6020026020010151848281518110610cb557610cb56115c7565b6001600160a01b0390921660209283029190910190910152600101610c81565b50505092915050565b5f546001600160a01b03163314610d0857604051635fc483c560e01b815260040160405180910390fd5b6001600160a01b0381165f81815260026020526040808220805460ff19166001179055517f2c3901e3fb770eb03de86a9d260bd78efb1582f427318c892172df56e31981199190a250565b335f9081526002602052604090205460ff16158015610d7c57505f546001600160a01b03163314155b15610d9a5760405163d23e31e960e01b815260040160405180910390fd5b6001600160a01b038216610dc15760405163f8c197f160e01b815260040160405180910390fd5b6001600160a01b0382165f9081526003602052604090205460ff1615610dfa5760405163aa43cb2d60e01b815260040160405180910390fd5b5f8290505f80826001600160a01b03166323341a056040518163ffffffff1660e01b81526004015f60405180830381865afa158015610e3b573d5f803e3d5ffd5b505050506040513d5f823e601f3d908101601f19168201604052610e629190810190611368565b50505050505093505092505080421015610e9157846040516313fcecd560e21b81526004016103469190611421565b604051636399d03d60e01b8152600481018590526001600160a01b03841690636399d03d906024015f604051808303815f87803b158015610ed0575f80fd5b505af1925050508015610ee1575060015b610f7557610eed6114ae565b806308c379a003610f295750610f016114c7565b80610f0c5750610f2b565b85816040516313fcecd560e21b8152600401610346929190611550565b505b604080516313fcecd560e21b81526001600160a01b03871660048201526024810191909152600d60448201526c2ab735b737bbb71032b93937b960991b6064820152608401610346565b6001600160a01b038086165f908152600360209081526040808320805460ff19166001179055805163370e19e760e21b81529051929387169263dc38679c926004808401939192918290030181865afa158015610fd4573d5f803e3d5ffd5b505050506040513d601f19601f82011682018060405250810190610ff89190611573565b90505f8186119050866001600160a01b03167fb34551c1b6827a3cb047ace35fa9a1ad9e76e2abd318d671ce2a5810c1e8cb2885888460405161103d9392919061158a565b60405180910390a250505050505050565b5f546001600160a01b0316331461107857604051635fc483c560e01b815260040160405180910390fd5b5f80546001600160a01b0319166001600160a01b0392909216919091179055565b80356001600160a01b03811681146110af575f80fd5b919050565b5f602082840312156110c4575f80fd5b6110cd82611099565b9392505050565b5f5b838110156110ee5781810151838201526020016110d6565b50505f910152565b5f815180845261110d8160208601602086016110d4565b601f01601f19169290920160200192915050565b8215158152604060208201525f61113b60408301846110f6565b949350505050565b5f8083601f840112611153575f80fd5b50813567ffffffffffffffff81111561116a575f80fd5b6020830191508360208260051b8501011115611184575f80fd5b9250929050565b5f805f806040858703121561119e575f80fd5b843567ffffffffffffffff808211156111b5575f80fd5b6111c188838901611143565b909650945060208701359150808211156111d9575f80fd5b506111e687828801611143565b95989497509550505050565b5f8060208385031215611203575f80fd5b823567ffffffffffffffff811115611219575f80fd5b61122585828601611143565b90969095509350505050565b602080825282518282018190525f9190848201906040850190845b818110156112715783516001600160a01b03168352928401929184019160010161124c565b50909695505050505050565b5f806040838503121561128e575f80fd5b61129783611099565b946020939093013593505050565b634e487b7160e01b5f52604160045260245ffd5b601f8201601f1916810167ffffffffffffffff811182821017156112df576112df6112a5565b6040525050565b5f82601f8301126112f5575f80fd5b815167ffffffffffffffff81111561130f5761130f6112a5565b604051611326601f8301601f1916602001826112b9565b81815284602083860101111561133a575f80fd5b61113b8260208301602087016110d4565b8051600281106110af575f80fd5b805180151581146110af575f80fd5b5f805f805f805f805f806101408b8d031215611382575f80fd5b8a5167ffffffffffffffff80821115611399575f80fd5b6113a58e838f016112e6565b9b5060208d01519150808211156113ba575f80fd5b506113c78d828e016112e6565b99505060408b0151975060608b015196506113e460808c0161134b565b95506113f260a08c01611359565b945060c08b0151935060e08b015192506101008b015191506101208b015190509295989b9194979a5092959850565b6001600160a01b03919091168152604060208201819052601b908201527f5265736f6c7574696f6e2074696d65206e6f7420726561636865640000000000606082015260800190565b602081525f6110cd60208301846110f6565b5f805f6060848603121561148e575f80fd5b83519250602084015191506114a560408501611359565b90509250925092565b5f60033d11156114c45760045f803e505f5160e01c5b90565b5f60443d10156114d45790565b6040516003193d81016004833e81513d67ffffffffffffffff816024840111818411171561150457505050505090565b828501915081518181111561151c5750505050505090565b843d87010160208285010111156115365750505050505090565b611545602082860101876112b9565b509095945050505050565b6001600160a01b03831681526040602082018190525f9061113b908301846110f6565b5f60208284031215611583575f80fd5b5051919050565b606081525f61159c60608301866110f6565b602083019490945250901515604090910152919050565b634e487b7160e01b5f52602160045260245ffd5b634e487b7160e01b5f52603260045260245ffd5b5f600182016115f857634e487b7160e01b5f52601160045260245ffd5b5060010190565b5f8060408385031215611610575f80fd5b61161983611359565b9150602083015167ffffffffffffffff811115611634575f80fd5b611640858286016112e6565b915050925092905056fea2646970667358221220b8d83205138cc7d8833019b07408880997a9ddfa573f78fb56e46713a3f4d9da64736f6c63430008180033",
  "linkReferences": {},
  "deployedLinkReferences": {},
  "immutableReferences": {},
  "inputSourceName": "project/contracts/MarketResolver.sol",
  "buildInfoId": "solc-0_8_24-943f77c08c28df55d1d5260af184184a43a9cd23"
}