{
  "_format": "hh3-artifact-1",
  "contractName": "Market",
  "sourceName": "contracts/Market.sol",
  "abi": [
    {
      "inputs": [
        {
          "internalType": "address",
          "name": "_creator",
          "type": "address"
        },
        {
          "internalType": "string",
          "name": "_question",
          "type": "string"
        },
        {
          "internalType": "string",
          "name": "_collectionSlug",
          "type": "string"
        },
        {
          "internalType": "uint256",
          "name": "_targetPrice",
          "type": "uint256"
        },
        {
          "internalType": "uint256",
          "name": "_resolutionTimestamp",
          "type": "uint256"
        },
        {
          "internalType": "uint256",
          "name": "_initialLiquidity",
          "type": "uint256"
        }
      ],
      "stateMutability": "payable",
      "type": "constructor"
    },
    {
      "inputs": [
        {
          "internalType": "address",
          "name": "sender",
          "type": "address"
        },
        {
          "internalType": "uint256",
          "name": "balance",
          "type": "uint256"
        },
        {
          "internalType": "uint256",
          "name": "needed",
          "type": "uint256"
        },
        {
          "internalType": "uint256",
          "name": "tokenId",
          "type": "uint256"
        }
      ],
      "name": "ERC1155InsufficientBalance",
      "type": "error"
    },
    {
      "inputs": [
        {
          "internalType": "address",
          "name": "approver",
          "type": "address"
        }
      ],
      "name": "ERC1155InvalidApprover",
      "type": "error"
    },
    {
      "inputs": [
        {
          "internalType": "uint256",
          "name": "idsLength",
          "type": "uint256"
        },
        {
          "internalType": "uint256",
          "name": "valuesLength",
          "type": "uint256"
        }
      ],
      "name": "ERC1155InvalidArrayLength",
      "type": "error"
    },
    {
      "inputs": [
        {
          "internalType": "address",
          "name": "operator",
          "type": "address"
        }
      ],
      "name": "ERC1155InvalidOperator",
      "type": "error"
    },
    {
      "inputs": [
        {
          "internalType": "address",
          "name": "receiver",
          "type": "address"
        }
      ],
      "name": "ERC1155InvalidReceiver",
      "type": "error"
    },
    {
      "inputs": [
        {
          "internalType": "address",
          "name": "sender",
          "type": "address"
        }
      ],
      "name": "ERC1155InvalidSender",
      "type": "error"
    },
    {
      "inputs": [
        {
          "internalType": "address",
          "name": "operator",
          "type": "address"
        },
        {
          "internalType": "address",
          "name": "owner",
          "type": "address"
        }
      ],
      "name": "ERC1155MissingApprovalForAll",
      "type": "error"
    },
    {
      "inputs": [],
      "name": "InsufficientPayment",
      "type": "error"
    },
    {
      "inputs": [],
      "name": "InvalidSharesToRedeem",
      "type": "error"
    },
    {
      "inputs": [],
      "name": "MarketAlreadyResolved",
      "type": "error"
    },
    {
      "inputs": [],
      "name": "MarketNotResolved",
      "type": "error"
    },
    {
      "inputs": [],
      "name": "OnlyResolver",
      "type": "error"
    },
    {
      "inputs": [],
      "name": "ResolutionTimeNotPassed",
      "type": "error"
    },
    {
      "anonymous": false,
      "inputs": [
        {
          "indexed": true,
          "internalType": "address",
          "name": "account",
          "type": "address"
        },
        {
          "indexed": true,
          "internalType": "address",
          "name": "operator",
          "type": "address"
        },
        {
          "indexed": false,
          "internalType": "bool",
          "name": "approved",
          "type": "bool"
        }
      ],
      "name": "ApprovalForAll",
      "type": "event"
    },
    {
      "anonymous": false,
      "inputs": [
        {
          "indexed": false,
          "internalType": "bool",
          "name": "winningOutcome",
          "type": "bool"
        },
        {
          "indexed": false,
          "internalType": "uint256",
          "name": "finalReportedPrice",
          "type": "uint256"
        }
      ],
      "name": "MarketResolved",
      "type": "event"
    },
    {
      "anonymous": false,
      "inputs": [
        {
          "indexed": true,
          "internalType": "address",
          "name": "user",
          "type": "address"
        },
        {
          "indexed": true,
          "internalType": "bool",
          "name": "outcome",
          "type": "bool"
        },
        {
          "indexed": false,
          "internalType": "uint256",
          "name": "ethAmount",
          "type": "uint256"
        },
        {
          "indexed": false,
          "internalType": "uint256",
          "name": "shareAmount",
          "type": "uint256"
        }
      ],
      "name": "Trade",
      "type": "event"
    },
    {
      "anonymous": false,
      "inputs": [
        {
          "indexed": true,
          "internalType": "address",
          "name": "operator",
          "type": "address"
        },
        {
          "indexed": true,
          "internalType": "address",
          "name": "from",
          "type": "address"
        },
        {
          "indexed": true,
          "internalType": "address",
          "name": "to",
          "type": "address"
        },
        {
          "indexed": false,
          "internalType": "uint256[]",
          "name": "ids",
          "type": "uint256[]"
        },
        {
          "indexed": false,
          "internalType": "uint256[]",
          "name": "values",
          "type": "uint256[]"
        }
      ],
      "name": "TransferBatch",
      "type": "event"
    },
    {
      "anonymous": false,
      "inputs": [
        {
          "indexed": true,
          "internalType": "address",
          "name": "operator",
          "type": "address"
        },
        {
          "indexed": true,
          "internalType": "address",
          "name": "from",
          "type": "address"
        },
        {
          "indexed": true,
          "internalType": "address",
          "name": "to",
          "type": "address"
        },
        {
          "indexed": false,
          "internalType": "uint256",
          "name": "id",
          "type": "uint256"
        },
        {
          "indexed": false,
          "internalType": "uint256",
          "name": "value",
          "type": "uint256"
        }
      ],
      "name": "TransferSingle",
      "type": "event"
    },
    {
      "anonymous": false,
      "inputs": [
        {
          "indexed": false,
          "internalType": "string",
          "name": "value",
          "type": "string"
        },
        {
          "indexed": true,
          "internalType": "uint256",
          "name": "id",
          "type": "uint256"
        }
      ],
      "name": "URI",
      "type": "event"
    },
    {
      "inputs": [],
      "name": "NO_SHARE_ID",
      "outputs": [
        {
          "internalType": "uint256",
          "name": "",
          "type": "uint256"
        }
      ],
      "stateMutability": "view",
      "type": "function"
    },
    {
      "inputs": [],
      "name": "YES_SHARE_ID",
      "outputs": [
        {
          "internalType": "uint256",
          "name": "",
          "type": "uint256"
        }
      ],
      "stateMutability": "view",
      "type": "function"
    },
    {
      "inputs": [
        {
          "internalType": "address",
          "name": "account",
          "type": "address"
        },
        {
          "internalType": "uint256",
          "name": "id",
          "type": "uint256"
        }
      ],
      "name": "balanceOf",
      "outputs": [
        {
          "internalType": "uint256",
          "name": "",
          "type": "uint256"
        }
      ],
      "stateMutability": "view",
      "type": "function"
    },
    {
      "inputs": [
        {
          "internalType": "address[]",
          "name": "accounts",
          "type": "address[]"
        },
        {
          "internalType": "uint256[]",
          "name": "ids",
          "type": "uint256[]"
        }
      ],
      "name": "balanceOfBatch",
      "outputs": [
        {
          "internalType": "uint256[]",
          "name": "",
          "type": "uint256[]"
        }
      ],
      "stateMutability": "view",
      "type": "function"
    },
    {
      "inputs": [
        {
          "internalType": "bool",
          "name": "_outcome",
          "type": "bool"
        },
        {
          "internalType": "uint256",
          "name": "_sharesToBuy",
          "type": "uint256"
        }
      ],
      "name": "buyShares",
      "outputs": [],
      "stateMutability": "payable",
      "type": "function"
    },
    {
      "inputs": [],
      "name": "collectionSlug",
      "outputs": [
        {
          "internalType": "string",
          "name": "",
          "type": "string"
        }
      ],
      "stateMutability": "view",
      "type": "function"
    },
    {
      "inputs": [],
      "name": "creator",
      "outputs": [
        {
          "internalType": "address",
          "name": "",
          "type": "address"
        }
      ],
      "stateMutability": "view",
      "type": "function"
    },
    {
      "inputs": [
        {
          "internalType": "bool",
          "name": "_outcome",
          "type": "bool"
        },
        {
          "internalType": "uint256",
          "name": "_sharesToBuy",
          "type": "uint256"
        }
      ],
      "name": "getCostForShares",
      "outputs": [
        {
          "internalType": "uint256",
          "name": "",
          "type": "uint256"
        }
      ],
      "stateMutability": "view",
      "type": "function"
    },
    {
      "inputs": [
        {
          "internalType": "bool",
          "name": "_outcome",
          "type": "bool"
        },
        {
          "internalType": "uint256",
          "name": "_sharesToSell",
          "type": "uint256"
        }
      ],
      "name": "getReturnForShares",
      "outputs": [
        {
          "internalType": "uint256",
          "name": "",
          "type": "uint256"
        }
      ],
      "stateMutability": "view",
      "type": "function"
    },
    {
      "inputs": [
        {
          "internalType": "bool",
          "name": "_outcome",
          "type": "bool"
        }
      ],
      "name": "getSpotPrice",
      "outputs": [
        {
          "internalType": "uint256",
          "name": "",
          "type": "uint256"
        }
      ],
      "stateMutability": "view",
      "type": "function"
    },
    {
      "inputs": [
        {
          "internalType": "address",
          "name": "account",
          "type": "address"
        },
        {
          "internalType": "address",
          "name": "operator",
          "type": "address"
        }
      ],
      "name": "isApprovedForAll",
      "outputs": [
        {
          "internalType": "bool",
          "name": "",
          "type": "bool"
        }
      ],
      "stateMutability": "view",
      "type": "function"
    },
    {
      "inputs": [],
      "name": "noSharesTotal",
      "outputs": [
        {
          "internalType": "uint256",
          "name": "",
          "type": "uint256"
        }
      ],
      "stateMutability": "view",
      "type": "function"
    },
    {
      "inputs": [],
      "name": "question",
      "outputs": [
        {
          "internalType": "string",
          "name": "",
          "type": "string"
        }
      ],
      "stateMutability": "view",
      "type": "function"
    },
    {
      "inputs": [],
      "name": "redeemShares",
      "outputs": [],
      "stateMutability": "nonpayable",
      "type": "function"
    },
    {
      "inputs": [],
      "name": "resolutionTimestamp",
      "outputs": [
        {
          "internalType": "uint256",
          "name": "",
          "type": "uint256"
        }
      ],
      "stateMutability": "view",
      "type": "function"
    },
    {
      "inputs": [
        {
          "internalType": "uint256",
          "name": "_finalPrice",
          "type": "uint256"
        }
      ],
      "name": "resolveMarket",
      "outputs": [],
      "stateMutability": "nonpayable",
      "type": "function"
    },
    {
      "inputs": [],
      "name": "resolver",
      "outputs": [
        {
          "internalType": "address",
          "name": "",
          "type": "address"
        }
      ],
      "stateMutability": "view",
      "type": "function"
    },
    {
      "inputs": [
        {
          "internalType": "address",
          "name": "from",
          "type": "address"
        },
        {
          "internalType": "address",
          "name": "to",
          "type": "address"
        },
        {
          "internalType": "uint256[]",
          "name": "ids",
          "type": "uint256[]"
        },
        {
          "internalType": "uint256[]",
          "name": "values",
          "type": "uint256[]"
        },
        {
          "internalType": "bytes",
          "name": "data",
          "type": "bytes"
        }
      ],
      "name": "safeBatchTransferFrom",
      "outputs": [],
      "stateMutability": "nonpayable",
      "type": "function"
    },
    {
      "inputs": [
        {
          "internalType": "address",
          "name": "from",
          "type": "address"
        },
        {
          "internalType": "address",
          "name": "to",
          "type": "address"
        },
        {
          "internalType": "uint256",
          "name": "id",
          "type": "uint256"
        },
        {
          "internalType": "uint256",
          "name": "value",
          "type": "uint256"
        },
        {
          "internalType": "bytes",
          "name": "data",
          "type": "bytes"
        }
      ],
      "name": "safeTransferFrom",
      "outputs": [],
      "stateMutability": "nonpayable",
      "type": "function"
    },
    {
      "inputs": [
        {
          "internalType": "bool",
          "name": "_outcome",
          "type": "bool"
        },
        {
          "internalType": "uint256",
          "name": "_sharesToSell",
          "type": "uint256"
        }
      ],
      "name": "sellShares",
      "outputs": [],
      "stateMutability": "nonpayable",
      "type": "function"
    },
    {
      "inputs": [
        {
          "internalType": "address",
          "name": "operator",
          "type": "address"
        },
        {
          "internalType": "bool",
          "name": "approved",
          "type": "bool"
        }
      ],
      "name": "setApprovalForAll",
      "outputs": [],
      "stateMutability": "nonpayable",
      "type": "function"
    },
    {
      "inputs": [],
      "name": "status",
      "outputs": [
        {
          "internalType": "enum Market.Status",
          "name": "",
          "type": "uint8"
        }
      ],
      "stateMutability": "view",
      "type": "function"
    },
    {
      "inputs": [
        {
          "internalType": "bytes4",
          "name": "interfaceId",
          "type": "bytes4"
        }
      ],
      "name": "supportsInterface",
      "outputs": [
        {
          "internalType": "bool",
          "name": "",
          "type": "bool"
        }
      ],
      "stateMutability": "view",
      "type": "function"
    },
    {
      "inputs": [],
      "name": "targetPrice",
      "outputs": [
        {
          "internalType": "uint256",
          "name": "",
          "type": "uint256"
        }
      ],
      "stateMutability": "view",
      "type": "function"
    },
    {
      "inputs": [
        {
          "internalType": "uint256",
          "name": "",
          "type": "uint256"
        }
      ],
      "name": "uri",
      "outputs": [
        {
          "internalType": "string",
          "name": "",
          "type": "string"
        }
      ],
      "stateMutability": "view",
      "type": "function"
    },
    {
      "inputs": [],
      "name": "winningOutcome",
      "outputs": [
        {
          "internalType": "bool",
          "name": "",
          "type": "bool"
        }
      ],
      "stateMutability": "view",
      "type": "function"
    },
    {
      "inputs": [],
      "name": "yesSharesTotal",
      "outputs": [
        {
          "internalType": "uint256",
          "name": "",
          "type": "uint256"
        }
      ],
      "stateMutability": "view",
      "type": "function"
    }
  ],
  "bytecode": "0x61010060405260405161486d38038061486d83398181016040528101906100269190610c73565b60405180602001604052805f8152506100448161016960201b60201c565b508573ffffffffffffffffffffffffffffffffffffffff1660808173ffffffffffffffffffffffffffffffffffffffff16815250508573ffffffffffffffffffffffffffffffffffffffff1660a08173ffffffffffffffffffffffffffffffffffffffff168152505084600390816100bc9190610f3b565b5083600490816100cc9190610f3b565b508260c081815250508160e081815250505f61010c6002670de0b6b3a7640000846100f79190611037565b6101019190611037565b61017c60201b60201c565b9050806005819055508060068190555061013d8760018360405180602001604052805f8152506101f360201b60201c565b61015d875f8360405180602001604052805f8152506101f360201b60201c565b50505050505050611425565b80600290816101789190610f3b565b5050565b5f60038211156101e1578190505f600160028461019991906110a5565b6101a391906110d5565b90505b818110156101db5780915060028182856101c091906110a5565b6101ca91906110d5565b6101d491906110a5565b90506101a6565b506101ee565b5f82146101ed57600190505b5b919050565b5f73ffffffffffffffffffffffffffffffffffffffff168473ffffffffffffffffffffffffffffffffffffffff1603610263575f6040517f57f447ce00000000000000000000000000000000000000000000000000000000815260040161025a9190611117565b60405180910390fd5b5f5f610275858561029460201b60201c565b9150915061028c5f878484876102c460201b60201c565b505050505050565b60608060405191506001825283602083015260408201905060018152826020820152604081016040529250929050565b6102d68585858561038860201b60201c565b5f73ffffffffffffffffffffffffffffffffffffffff168473ffffffffffffffffffffffffffffffffffffffff1614610381575f61031861072160201b60201c565b9050600184510361036a575f6103375f8661072860201b90919060201c565b90505f61034d5f8661072860201b90919060201c565b905061036383898985858961073b60201b60201c565b505061037f565b61037e8187878787876108ea60201b60201c565b5b505b5050505050565b80518251146103d257815181516040517f5b0599910000000000000000000000000000000000000000000000000000000081526004016103c992919061113f565b60405180910390fd5b5f6103e161072160201b60201c565b90505f5f90505b83518110156105e0575f610405828661072860201b90919060201c565b90505f61041b838661072860201b90919060201c565b90505f73ffffffffffffffffffffffffffffffffffffffff168873ffffffffffffffffffffffffffffffffffffffff161461053e575f5f5f8481526020019081526020015f205f8a73ffffffffffffffffffffffffffffffffffffffff1673ffffffffffffffffffffffffffffffffffffffff1681526020019081526020015f20549050818110156104ea57888183856040517f03dee4c50000000000000000000000000000000000000000000000000000000081526004016104e19493929190611166565b60405180910390fd5b8181035f5f8581526020019081526020015f205f8b73ffffffffffffffffffffffffffffffffffffffff1673ffffffffffffffffffffffffffffffffffffffff1681526020019081526020015f2081905550505b5f73ffffffffffffffffffffffffffffffffffffffff168773ffffffffffffffffffffffffffffffffffffffff16146105d357805f5f8481526020019081526020015f205f8973ffffffffffffffffffffffffffffffffffffffff1673ffffffffffffffffffffffffffffffffffffffff1681526020019081526020015f205f8282546105cb91906110d5565b925050819055505b50508060010190506103e8565b50600183510361069b575f6105fe5f8561072860201b90919060201c565b90505f6106145f8561072860201b90919060201c565b90508573ffffffffffffffffffffffffffffffffffffffff168773ffffffffffffffffffffffffffffffffffffffff168473ffffffffffffffffffffffffffffffffffffffff167fc3d58168c5ae7397731d063d5bbf3d657854427343f4c083240f7aacaa2d0f62858560405161068c92919061113f565b60405180910390a4505061071a565b8373ffffffffffffffffffffffffffffffffffffffff168573ffffffffffffffffffffffffffffffffffffffff168273ffffffffffffffffffffffffffffffffffffffff167f4a39dc06d4c0dbc64b70af90fd698a233a518aa5d07e595d983b8c0526c8f7fb8686604051610711929190611260565b60405180910390a45b5050505050565b5f33905090565b5f60208202602084010151905092915050565b5f8473ffffffffffffffffffffffffffffffffffffffff163b11156108e2578373ffffffffffffffffffffffffffffffffffffffff1663f23a6e6187878686866040518663ffffffff1660e01b815260040161079b9594939291906112e7565b6020604051808303815f875af19250505080156107d657506040513d601f19601f820116820180604052508101906107d39190611394565b60015b610857573d805f8114610804576040519150601f19603f3d011682016040523d82523d5f602084013e610809565b606091505b505f81510361084f57846040517f57f447ce0000000000000000000000000000000000000000000000000000000081526004016108469190611117565b60405180910390fd5b805160208201fd5b63f23a6e6160e01b7bffffffffffffffffffffffffffffffffffffffffffffffffffffffff1916817bffffffffffffffffffffffffffffffffffffffffffffffffffffffff1916146108e057846040517f57f447ce0000000000000000000000000000000000000000000000000000000081526004016108d79190611117565b60405180910390fd5b505b505050505050565b5f8473ffffffffffffffffffffffffffffffffffffffff163b1115610a91578373ffffffffffffffffffffffffffffffffffffffff1663bc197c8187878686866040518663ffffffff1660e01b815260040161094a9594939291906113bf565b6020604051808303815f875af192505050801561098557506040513d601f19601f820116820180604052508101906109829190611394565b60015b610a06573d805f81146109b3576040519150601f19603f3d011682016040523d82523d5f602084013e6109b8565b606091505b505f8151036109fe57846040517f57f447ce0000000000000000000000000000000000000000000000000000000081526004016109f59190611117565b60405180910390fd5b805160208201fd5b63bc197c8160e01b7bffffffffffffffffffffffffffffffffffffffffffffffffffffffff1916817bffffffffffffffffffffffffffffffffffffffffffffffffffffffff191614610a8f57846040517f57f447ce000000000000000000000000000000000000000000000000000000008152600401610a869190611117565b60405180910390fd5b505b505050505050565b5f604051905090565b5f5ffd5b5f5ffd5b5f73ffffffffffffffffffffffffffffffffffffffff82169050919050565b5f610ad382610aaa565b9050919050565b610ae381610ac9565b8114610aed575f5ffd5b50565b5f81519050610afe81610ada565b92915050565b5f5ffd5b5f5ffd5b5f601f19601f8301169050919050565b7f4e487b71000000000000000000000000000000000000000000000000000000005f52604160045260245ffd5b610b5282610b0c565b810181811067ffffffffffffffff82111715610b7157610b70610b1c565b5b80604052505050565b5f610b83610a99565b9050610b8f8282610b49565b919050565b5f67ffffffffffffffff821115610bae57610bad610b1c565b5b610bb782610b0c565b9050602081019050919050565b8281835e5f83830152505050565b5f610be4610bdf84610b94565b610b7a565b905082815260208101848484011115610c0057610bff610b08565b5b610c0b848285610bc4565b509392505050565b5f82601f830112610c2757610c26610b04565b5b8151610c37848260208601610bd2565b91505092915050565b5f819050919050565b610c5281610c40565b8114610c5c575f5ffd5b50565b5f81519050610c6d81610c49565b92915050565b5f5f5f5f5f5f60c08789031215610c8d57610c8c610aa2565b5b5f610c9a89828a01610af0565b965050602087015167ffffffffffffffff811115610cbb57610cba610aa6565b5b610cc789828a01610c13565b955050604087015167ffffffffffffffff811115610ce857610ce7610aa6565b5b610cf489828a01610c13565b9450506060610d0589828a01610c5f565b9350506080610d1689828a01610c5f565b92505060a0610d2789828a01610c5f565b9150509295509295509295565b5f81519050919050565b7f4e487b71000000000000000000000000000000000000000000000000000000005f52602260045260245ffd5b5f6002820490506001821680610d8257607f821691505b602082108103610d9557610d94610d3e565b5b50919050565b5f819050815f5260205f209050919050565b5f6020601f8301049050919050565b5f82821b905092915050565b5f60088302610df77fffffffffffffffffffffffffffffffffffffffffffffffffffffffffffffffff82610dbc565b610e018683610dbc565b95508019841693508086168417925050509392505050565b5f819050919050565b5f610e3c610e37610e3284610c40565b610e19565b610c40565b9050919050565b5f819050919050565b610e5583610e22565b610e69610e6182610e43565b848454610dc8565b825550505050565b5f5f905090565b610e80610e71565b610e8b818484610e4c565b505050565b5b81811015610eae57610ea35f82610e78565b600181019050610e91565b5050565b601f821115610ef357610ec481610d9b565b610ecd84610dad565b81016020851015610edc578190505b610ef0610ee885610dad565b830182610e90565b50505b505050565b5f82821c905092915050565b5f610f135f1984600802610ef8565b1980831691505092915050565b5f610f2b8383610f04565b9150826002028217905092915050565b610f4482610d34565b67ffffffffffffffff811115610f5d57610f5c610b1c565b5b610f678254610d6b565b610f72828285610eb2565b5f60209050601f831160018114610fa3575f8415610f91578287015190505b610f9b8582610f20565b865550611002565b601f198416610fb186610d9b565b5f5b82811015610fd857848901518255600182019150602085019450602081019050610fb3565b86831015610ff55784890151610ff1601f891682610f04565b8355505b6001600288020188555050505b505050505050565b7f4e487b71000000000000000000000000000000000000000000000000000000005f52601160045260245ffd5b5f61104182610c40565b915061104c83610c40565b925082820261105a81610c40565b915082820484148315176110715761107061100a565b5b5092915050565b7f4e487b71000000000000000000000000000000000000000000000000000000005f52601260045260245ffd5b5f6110af82610c40565b91506110ba83610c40565b9250826110ca576110c9611078565b5b828204905092915050565b5f6110df82610c40565b91506110ea83610c40565b92508282019050808211156111025761110161100a565b5b92915050565b61111181610ac9565b82525050565b5f60208201905061112a5f830184611108565b92915050565b61113981610c40565b82525050565b5f6040820190506111525f830185611130565b61115f6020830184611130565b9392505050565b5f6080820190506111795f830187611108565b6111866020830186611130565b6111936040830185611130565b6111a06060830184611130565b95945050505050565b5f81519050919050565b5f82825260208201905092915050565b5f819050602082019050919050565b6111db81610c40565b82525050565b5f6111ec83836111d2565b60208301905092915050565b5f602082019050919050565b5f61120e826111a9565b61121881856111b3565b9350611223836111c3565b805f5b8381101561125357815161123a88826111e1565b9750611245836111f8565b925050600181019050611226565b5085935050505092915050565b5f6040820190508181035f8301526112788185611204565b9050818103602083015261128c8184611204565b90509392505050565b5f81519050919050565b5f82825260208201905092915050565b5f6112b982611295565b6112c3818561129f565b93506112d3818560208601610bc4565b6112dc81610b0c565b840191505092915050565b5f60a0820190506112fa5f830188611108565b6113076020830187611108565b6113146040830186611130565b6113216060830185611130565b818103608083015261133381846112af565b90509695505050505050565b5f7fffffffff0000000000000000000000000000000000000000000000000000000082169050919050565b6113738161133f565b811461137d575f5ffd5b50565b5f8151905061138e8161136a565b92915050565b5f602082840312156113a9576113a8610aa2565b5b5f6113b684828501611380565b91505092915050565b5f60a0820190506113d25f830188611108565b6113df6020830187611108565b81810360408301526113f18186611204565b905081810360608301526114058185611204565b9050818103608083015261141981846112af565b90509695505050505050565b60805160a05160c05160e05161340061146d5f395f8181610d6301526111d801525f8181610de701526113ec01525f81816107cc0152610c7301525f6107a801526134005ff3fe60806040526004361061019a575f3560e01c806368b89a2c116100eb578063d7bb030511610089578063ea0e81fa11610063578063ea0e81fa146105b8578063f08d4386146105e2578063f242432a1461060c578063f97bf8bb146106345761019a565b8063d7bb030514610528578063dc38679c14610552578063e985e9c51461057c5761019a565b8063a22cb465116100c5578063a22cb46514610484578063b460481d146104ac578063c6876af3146104c2578063cc2a7eb3146104ec5761019a565b806368b89a2c1461041457806385af5d35146104305780639b34ae031461045a5761019a565b80632381ad4e11610158578063432c472111610132578063432c47211461034c5780634ab0f9d9146103745780634e1273f4146103b05780636399d03d146103ec5761019a565b80632381ad4e146102d05780632eb2c2d6146102fa5780633fad9ae0146103225761019a565b8062fdd58e1461019e57806301ffc9a7146101da57806302d05d3f1461021657806304f3bcec146102405780630e89341c1461026a578063200d2ed2146102a6575b5f5ffd5b3480156101a9575f5ffd5b506101c460048036038101906101bf919061260b565b610670565b6040516101d19190612658565b60405180910390f35b3480156101e5575f5ffd5b5061020060048036038101906101fb91906126c6565b6106c5565b60405161020d919061270b565b60405180910390f35b348015610221575f5ffd5b5061022a6107a6565b6040516102379190612733565b60405180910390f35b34801561024b575f5ffd5b506102546107ca565b6040516102619190612733565b60405180910390f35b348015610275575f5ffd5b50610290600480360381019061028b919061274c565b6107ee565b60405161029d91906127e7565b60405180910390f35b3480156102b1575f5ffd5b506102ba610880565b6040516102c7919061287a565b60405180910390f35b3480156102db575f5ffd5b506102e4610892565b6040516102f19190612658565b60405180910390f35b348015610305575f5ffd5b50610320600480360381019061031b9190612a83565b610896565b005b34801561032d575f5ffd5b5061033661093d565b60405161034391906127e7565b60405180910390f35b348015610357575f5ffd5b50610372600480360381019061036d9190612b78565b6109c9565b005b34801561037f575f5ffd5b5061039a60048036038101906103959190612bb6565b610b36565b6040516103a79190612658565b60405180910390f35b3480156103bb575f5ffd5b506103d660048036038101906103d19190612ca1565b610b67565b6040516103e39190612dce565b60405180910390f35b3480156103f7575f5ffd5b50610412600480360381019061040d919061274c565b610c71565b005b61042e60048036038101906104299190612b78565b610e6c565b005b34801561043b575f5ffd5b506104446111d6565b6040516104519190612658565b60405180910390f35b348015610465575f5ffd5b5061046e6111fa565b60405161047b919061270b565b60405180910390f35b34801561048f575f5ffd5b506104aa60048036038101906104a59190612dee565b61120d565b005b3480156104b7575f5ffd5b506104c0611223565b005b3480156104cd575f5ffd5b506104d6611347565b6040516104e39190612658565b60405180910390f35b3480156104f7575f5ffd5b50610512600480360381019061050d9190612b78565b61134d565b60405161051f9190612658565b60405180910390f35b348015610533575f5ffd5b5061053c6113e5565b6040516105499190612658565b60405180910390f35b34801561055d575f5ffd5b506105666113ea565b6040516105739190612658565b60405180910390f35b348015610587575f5ffd5b506105a2600480360381019061059d9190612e2c565b61140e565b6040516105af919061270b565b60405180910390f35b3480156105c3575f5ffd5b506105cc61149c565b6040516105d99190612658565b60405180910390f35b3480156105ed575f5ffd5b506105f66114a2565b60405161060391906127e7565b60405180910390f35b348015610617575f5ffd5b50610632600480360381019061062d9190612e6a565b61152e565b005b34801561063f575f5ffd5b5061065a60048036038101906106559190612b78565b6115d5565b6040516106679190612658565b60405180910390f35b5f5f5f8381526020019081526020015f205f8473ffffffffffffffffffffffffffffffffffffffff1673ffffffffffffffffffffffffffffffffffffffff1681526020019081526020015f2054905092915050565b5f7fd9b67a26000000000000000000000000000000000000000000000000000000007bffffffffffffffffffffffffffffffffffffffffffffffffffffffff1916827bffffffffffffffffffffffffffffffffffffffffffffffffffffffff1916148061078f57507f0e89341c000000000000000000000000000000000000000000000000000000007bffffffffffffffffffffffffffffffffffffffffffffffffffffffff1916827bffffffffffffffffffffffffffffffffffffffffffffffffffffffff1916145b8061079f575061079e82611645565b5b9050919050565b7f000000000000000000000000000000000000000000000000000000000000000081565b7f000000000000000000000000000000000000000000000000000000000000000081565b6060600280546107fd90612f2a565b80601f016020809104026020016040519081016040528092919081815260200182805461082990612f2a565b80156108745780601f1061084b57610100808354040283529160200191610874565b820191905f5260205f20905b81548152906001019060200180831161085757829003601f168201915b50505050509050919050565b60075f9054906101000a900460ff1681565b5f81565b5f61089f6116ae565b90508073ffffffffffffffffffffffffffffffffffffffff168673ffffffffffffffffffffffffffffffffffffffff16141580156108e457506108e2868261140e565b155b156109285780866040517fe237d92200000000000000000000000000000000000000000000000000000000815260040161091f929190612f5a565b60405180910390fd5b61093586868686866116b5565b505050505050565b6003805461094a90612f2a565b80601f016020809104026020016040519081016040528092919081815260200182805461097690612f2a565b80156109c15780601f10610998576101008083540402835291602001916109c1565b820191905f5260205f20905b8154815290600101906020018083116109a457829003601f168201915b505050505081565b5f60018111156109dc576109db612807565b5b60075f9054906101000a900460ff1660018111156109fd576109fc612807565b5b14610a34576040517faa43cb2d00000000000000000000000000000000000000000000000000000000815260040160405180910390fd5b5f610a3f838361134d565b90505f83610a4d575f610a50565b60015b90508315610a75578260055f828254610a699190612fae565b92505081905550610a8e565b8260065f828254610a869190612fae565b925050819055505b610a993382856117a9565b3373ffffffffffffffffffffffffffffffffffffffff166108fc8390811502906040515f60405180830381858888f19350505050158015610adc573d5f5f3e3d5ffd5b508315153373ffffffffffffffffffffffffffffffffffffffff167ff6462a0afa0880720a9b8317f39324757851bd340a51fe6fb4e94374975358e08486604051610b28929190612fe1565b60405180910390a350505050565b5f5f82610b4557600654610b49565b6005545b9050670de0b6b3a764000081610b5f9190613035565b915050919050565b60608151835114610bb357815183516040517f5b059991000000000000000000000000000000000000000000000000000000008152600401610baa929190612fe1565b60405180910390fd5b5f835167ffffffffffffffff811115610bcf57610bce612897565b5b604051908082528060200260200182016040528015610bfd5781602001602082028036833780820191505090505b5090505f5f90505b8451811015610c6657610c3c610c24828761184b90919063ffffffff16565b610c37838761185e90919063ffffffff16565b610670565b828281518110610c4f57610c4e613065565b5b602002602001018181525050806001019050610c05565b508091505092915050565b7f000000000000000000000000000000000000000000000000000000000000000073ffffffffffffffffffffffffffffffffffffffff163373ffffffffffffffffffffffffffffffffffffffff1614610cf6576040517f57221ada00000000000000000000000000000000000000000000000000000000815260040160405180910390fd5b5f6001811115610d0957610d08612807565b5b60075f9054906101000a900460ff166001811115610d2a57610d29612807565b5b14610d61576040517faa43cb2d00000000000000000000000000000000000000000000000000000000815260040160405180910390fd5b7f0000000000000000000000000000000000000000000000000000000000000000421015610dbb576040517fb94efe9a00000000000000000000000000000000000000000000000000000000815260040160405180910390fd5b600160075f6101000a81548160ff02191690836001811115610de057610ddf612807565b5b02179055507f00000000000000000000000000000000000000000000000000000000000000008111600760016101000a81548160ff0219169083151502179055507ff680d0bd10cbd56c6089965028487f8751c5e7485ee076c45e809af3357408b3600760019054906101000a900460ff1682604051610e61929190613092565b60405180910390a150565b5f6001811115610e7f57610e7e612807565b5b60075f9054906101000a900460ff166001811115610ea057610e9f612807565b5b14610ed7576040517faa43cb2d00000000000000000000000000000000000000000000000000000000815260040160405180910390fd5b5f610ee283836115d5565b905080341015610f1e576040517fcd1c886700000000000000000000000000000000000000000000000000000000815260040160405180910390fd5b610f5c6040518060400160405280601281526020017f2d2d2d2042757920536861726573202d2d2d0000000000000000000000000000815250611871565b6110486040518060400160405280600581526020017f557365723a000000000000000000000000000000000000000000000000000000815250336040518060400160405280600b81526020017f207c204f7574636f6d653a0000000000000000000000000000000000000000008152508661100c576040518060400160405280600281526020017f4e4f000000000000000000000000000000000000000000000000000000000000815250611043565b6040518060400160405280600381526020017f59455300000000000000000000000000000000000000000000000000000000008152505b61190a565b6110be6040518060400160405280600e81526020017f53686172657320746f204275793a000000000000000000000000000000000000815250836040518060400160405280600881526020017f207c20436f73743a000000000000000000000000000000000000000000000000815250846119ac565b5f836110ca575f6110cd565b60015b905083156110f2578260055f8282546110e691906130b9565b9250508190555061110b565b8260065f82825461110391906130b9565b925050819055505b61112533828560405180602001604052805f815250611a4e565b8315153373ffffffffffffffffffffffffffffffffffffffff167ff6462a0afa0880720a9b8317f39324757851bd340a51fe6fb4e94374975358e08486604051611170929190612fe1565b60405180910390a3813411156111d0573373ffffffffffffffffffffffffffffffffffffffff166108fc83346111a69190612fae565b90811502906040515f60405180830381858888f193505050501580156111ce573d5f5f3e3d5ffd5b505b50505050565b7f000000000000000000000000000000000000000000000000000000000000000081565b600760019054906101000a900460ff1681565b61121f6112186116ae565b8383611ae3565b5050565b60018081111561123657611235612807565b5b60075f9054906101000a900460ff16600181111561125757611256612807565b5b1461128e576040517f2e96c72600000000000000000000000000000000000000000000000000000000815260040160405180910390fd5b5f600760019054906101000a900460ff166112a9575f6112ac565b60015b90505f6112b93383610670565b90505f81036112f4576040517f67dbb2bc00000000000000000000000000000000000000000000000000000000815260040160405180910390fd5b6112ff3383836117a9565b3373ffffffffffffffffffffffffffffffffffffffff166108fc8290811502906040515f60405180830381858888f19350505050158015611342573d5f5f3e3d5ffd5b505050565b60055481565b5f5f8361135c57600654611360565b6005545b90505f670de0b6b3a7640000600261137891906130ec565b828361138491906130ec565b61138e9190613035565b90505f848361139d9190612fae565b90505f670de0b6b3a764000060026113b591906130ec565b82836113c191906130ec565b6113cb9190613035565b905080836113d99190612fae565b94505050505092915050565b600181565b7f000000000000000000000000000000000000000000000000000000000000000081565b5f60015f8473ffffffffffffffffffffffffffffffffffffffff1673ffffffffffffffffffffffffffffffffffffffff1681526020019081526020015f205f8373ffffffffffffffffffffffffffffffffffffffff1673ffffffffffffffffffffffffffffffffffffffff1681526020019081526020015f205f9054906101000a900460ff16905092915050565b60065481565b600480546114af90612f2a565b80601f01602080910402602001604051908101604052809291908181526020018280546114db90612f2a565b80156115265780601f106114fd57610100808354040283529160200191611526565b820191905f5260205f20905b81548152906001019060200180831161150957829003601f168201915b505050505081565b5f6115376116ae565b90508073ffffffffffffffffffffffffffffffffffffffff168673ffffffffffffffffffffffffffffffffffffffff161415801561157c575061157a868261140e565b155b156115c05780866040517fe237d9220000000000000000000000000000000000000000000000000000000081526004016115b7929190612f5a565b60405180910390fd5b6115cd8686868686611c4c565b505050505050565b5f5f836115e4576006546115e8565b6005545b90505f670de0b6b3a7640000600261160091906130ec565b8285600261160e91906130ec565b61161891906130ec565b858661162491906130ec565b61162e91906130b9565b6116389190613035565b9050809250505092915050565b5f7f01ffc9a7000000000000000000000000000000000000000000000000000000007bffffffffffffffffffffffffffffffffffffffffffffffffffffffff1916827bffffffffffffffffffffffffffffffffffffffffffffffffffffffff1916149050919050565b5f33905090565b5f73ffffffffffffffffffffffffffffffffffffffff168473ffffffffffffffffffffffffffffffffffffffff1603611725575f6040517f57f447ce00000000000000000000000000000000000000000000000000000000815260040161171c9190612733565b60405180910390fd5b5f73ffffffffffffffffffffffffffffffffffffffff168573ffffffffffffffffffffffffffffffffffffffff1603611795575f6040517f01a8351400000000000000000000000000000000000000000000000000000000815260040161178c9190612733565b60405180910390fd5b6117a28585858585611d52565b5050505050565b5f73ffffffffffffffffffffffffffffffffffffffff168373ffffffffffffffffffffffffffffffffffffffff1603611819575f6040517f01a835140000000000000000000000000000000000000000000000000000000081526004016118109190612733565b60405180910390fd5b5f5f6118258484611dfe565b91509150611844855f848460405180602001604052805f815250611d52565b5050505050565b5f60208202602084010151905092915050565b5f60208202602084010151905092915050565b6119078160405160240161188591906127e7565b6040516020818303038152906040527f41304fac000000000000000000000000000000000000000000000000000000007bffffffffffffffffffffffffffffffffffffffffffffffffffffffff19166020820180517bffffffffffffffffffffffffffffffffffffffffffffffffffffffff8381831617835250505050611e2e565b50565b6119a684848484604051602401611924949392919061312d565b6040516020818303038152906040527f245986f2000000000000000000000000000000000000000000000000000000007bffffffffffffffffffffffffffffffffffffffffffffffffffffffff19166020820180517bffffffffffffffffffffffffffffffffffffffffffffffffffffffff8381831617835250505050611e2e565b50505050565b611a48848484846040516024016119c69493929190613185565b6040516020818303038152906040527fc67ea9d1000000000000000000000000000000000000000000000000000000007bffffffffffffffffffffffffffffffffffffffffffffffffffffffff19166020820180517bffffffffffffffffffffffffffffffffffffffffffffffffffffffff8381831617835250505050611e2e565b50505050565b5f73ffffffffffffffffffffffffffffffffffffffff168473ffffffffffffffffffffffffffffffffffffffff1603611abe575f6040517f57f447ce000000000000000000000000000000000000000000000000000000008152600401611ab59190612733565b60405180910390fd5b5f5f611aca8585611dfe565b91509150611adb5f87848487611d52565b505050505050565b5f73ffffffffffffffffffffffffffffffffffffffff168273ffffffffffffffffffffffffffffffffffffffff1603611b53575f6040517fced3e100000000000000000000000000000000000000000000000000000000008152600401611b4a9190612733565b60405180910390fd5b8060015f8573ffffffffffffffffffffffffffffffffffffffff1673ffffffffffffffffffffffffffffffffffffffff1681526020019081526020015f205f8473ffffffffffffffffffffffffffffffffffffffff1673ffffffffffffffffffffffffffffffffffffffff1681526020019081526020015f205f6101000a81548160ff0219169083151502179055508173ffffffffffffffffffffffffffffffffffffffff168373ffffffffffffffffffffffffffffffffffffffff167f17307eab39ab6107e8899845ad3d59bd9653f200f220920489ca2b5937696c3183604051611c3f919061270b565b60405180910390a3505050565b5f73ffffffffffffffffffffffffffffffffffffffff168473ffffffffffffffffffffffffffffffffffffffff1603611cbc575f6040517f57f447ce000000000000000000000000000000000000000000000000000000008152600401611cb39190612733565b60405180910390fd5b5f73ffffffffffffffffffffffffffffffffffffffff168573ffffffffffffffffffffffffffffffffffffffff1603611d2c575f6040517f01a83514000000000000000000000000000000000000000000000000000000008152600401611d239190612733565b60405180910390fd5b5f5f611d388585611dfe565b91509150611d498787848487611d52565b50505050505050565b611d5e85858585611e48565b5f73ffffffffffffffffffffffffffffffffffffffff168473ffffffffffffffffffffffffffffffffffffffff1614611df7575f611d9a6116ae565b90506001845103611de6575f611db95f8661185e90919063ffffffff16565b90505f611dcf5f8661185e90919063ffffffff16565b9050611ddf8389898585896121db565b5050611df5565b611df481878787878761238a565b5b505b5050505050565b60608060405191506001825283602083015260408201905060018152826020820152604081016040529250929050565b611e4581611e3d612539612558565b63ffffffff16565b50565b8051825114611e9257815181516040517f5b059991000000000000000000000000000000000000000000000000000000008152600401611e89929190612fe1565b60405180910390fd5b5f611e9b6116ae565b90505f5f90505b835181101561209a575f611ebf828661185e90919063ffffffff16565b90505f611ed5838661185e90919063ffffffff16565b90505f73ffffffffffffffffffffffffffffffffffffffff168873ffffffffffffffffffffffffffffffffffffffff1614611ff8575f5f5f8481526020019081526020015f205f8a73ffffffffffffffffffffffffffffffffffffffff1673ffffffffffffffffffffffffffffffffffffffff1681526020019081526020015f2054905081811015611fa457888183856040517f03dee4c5000000000000000000000000000000000000000000000000000000008152600401611f9b94939291906131d6565b60405180910390fd5b8181035f5f8581526020019081526020015f205f8b73ffffffffffffffffffffffffffffffffffffffff1673ffffffffffffffffffffffffffffffffffffffff1681526020019081526020015f2081905550505b5f73ffffffffffffffffffffffffffffffffffffffff168773ffffffffffffffffffffffffffffffffffffffff161461208d57805f5f8481526020019081526020015f205f8973ffffffffffffffffffffffffffffffffffffffff1673ffffffffffffffffffffffffffffffffffffffff1681526020019081526020015f205f82825461208591906130b9565b925050819055505b5050806001019050611ea2565b506001835103612155575f6120b85f8561185e90919063ffffffff16565b90505f6120ce5f8561185e90919063ffffffff16565b90508573ffffffffffffffffffffffffffffffffffffffff168773ffffffffffffffffffffffffffffffffffffffff168473ffffffffffffffffffffffffffffffffffffffff167fc3d58168c5ae7397731d063d5bbf3d657854427343f4c083240f7aacaa2d0f628585604051612146929190612fe1565b60405180910390a450506121d4565b8373ffffffffffffffffffffffffffffffffffffffff168573ffffffffffffffffffffffffffffffffffffffff168273ffffffffffffffffffffffffffffffffffffffff167f4a39dc06d4c0dbc64b70af90fd698a233a518aa5d07e595d983b8c0526c8f7fb86866040516121cb929190613219565b60405180910390a45b5050505050565b5f8473ffffffffffffffffffffffffffffffffffffffff163b1115612382578373ffffffffffffffffffffffffffffffffffffffff1663f23a6e6187878686866040518663ffffffff1660e01b815260040161223b9594939291906132a0565b6020604051808303815f875af192505050801561227657506040513d601f19601f82011682018060405250810190612273919061330c565b60015b6122f7573d805f81146122a4576040519150601f19603f3d011682016040523d82523d5f602084013e6122a9565b606091505b505f8151036122ef57846040517f57f447ce0000000000000000000000000000000000000000000000000000000081526004016122e69190612733565b60405180910390fd5b805160208201fd5b63f23a6e6160e01b7bffffffffffffffffffffffffffffffffffffffffffffffffffffffff1916817bffffffffffffffffffffffffffffffffffffffffffffffffffffffff19161461238057846040517f57f447ce0000000000000000000000000000000000000000000000000000000081526004016123779190612733565b60405180910390fd5b505b505050505050565b5f8473ffffffffffffffffffffffffffffffffffffffff163b1115612531578373ffffffffffffffffffffffffffffffffffffffff1663bc197c8187878686866040518663ffffffff1660e01b81526004016123ea959493929190613337565b6020604051808303815f875af192505050801561242557506040513d601f19601f82011682018060405250810190612422919061330c565b60015b6124a6573d805f8114612453576040519150601f19603f3d011682016040523d82523d5f602084013e612458565b606091505b505f81510361249e57846040517f57f447ce0000000000000000000000000000000000000000000000000000000081526004016124959190612733565b60405180910390fd5b805160208201fd5b63bc197c8160e01b7bffffffffffffffffffffffffffffffffffffffffffffffffffffffff1916817bffffffffffffffffffffffffffffffffffffffffffffffffffffffff19161461252f57846040517f57f447ce0000000000000000000000000000000000000000000000000000000081526004016125269190612733565b60405180910390fd5b505b505050505050565b5f6a636f6e736f6c652e6c6f6790505f5f835160208501845afa505050565b612563819050919050565b61256b61339d565b565b5f604051905090565b5f5ffd5b5f5ffd5b5f73ffffffffffffffffffffffffffffffffffffffff82169050919050565b5f6125a78261257e565b9050919050565b6125b78161259d565b81146125c1575f5ffd5b50565b5f813590506125d2816125ae565b92915050565b5f819050919050565b6125ea816125d8565b81146125f4575f5ffd5b50565b5f81359050612605816125e1565b92915050565b5f5f6040838503121561262157612620612576565b5b5f61262e858286016125c4565b925050602061263f858286016125f7565b9150509250929050565b612652816125d8565b82525050565b5f60208201905061266b5f830184612649565b92915050565b5f7fffffffff0000000000000000000000000000000000000000000000000000000082169050919050565b6126a581612671565b81146126af575f5ffd5b50565b5f813590506126c08161269c565b92915050565b5f602082840312156126db576126da612576565b5b5f6126e8848285016126b2565b91505092915050565b5f8115159050919050565b612705816126f1565b82525050565b5f60208201905061271e5f8301846126fc565b92915050565b61272d8161259d565b82525050565b5f6020820190506127465f830184612724565b92915050565b5f6020828403121561276157612760612576565b5b5f61276e848285016125f7565b91505092915050565b5f81519050919050565b5f82825260208201905092915050565b8281835e5f83830152505050565b5f601f19601f8301169050919050565b5f6127b982612777565b6127c38185612781565b93506127d3818560208601612791565b6127dc8161279f565b840191505092915050565b5f6020820190508181035f8301526127ff81846127af565b905092915050565b7f4e487b71000000000000000000000000000000000000000000000000000000005f52602160045260245ffd5b6002811061284557612844612807565b5b50565b5f81905061285582612834565b919050565b5f61286482612848565b9050919050565b6128748161285a565b82525050565b5f60208201905061288d5f83018461286b565b92915050565b5f5ffd5b7f4e487b71000000000000000000000000000000000000000000000000000000005f52604160045260245ffd5b6128cd8261279f565b810181811067ffffffffffffffff821117156128ec576128eb612897565b5b80604052505050565b5f6128fe61256d565b905061290a82826128c4565b919050565b5f67ffffffffffffffff82111561292957612928612897565b5b602082029050602081019050919050565b5f5ffd5b5f61295061294b8461290f565b6128f5565b905080838252602082019050602084028301858111156129735761297261293a565b5b835b8181101561299c578061298888826125f7565b845260208401935050602081019050612975565b5050509392505050565b5f82601f8301126129ba576129b9612893565b5b81356129ca84826020860161293e565b91505092915050565b5f5ffd5b5f67ffffffffffffffff8211156129f1576129f0612897565b5b6129fa8261279f565b9050602081019050919050565b828183375f83830152505050565b5f612a27612a22846129d7565b6128f5565b905082815260208101848484011115612a4357612a426129d3565b5b612a4e848285612a07565b509392505050565b5f82601f830112612a6a57612a69612893565b5b8135612a7a848260208601612a15565b91505092915050565b5f5f5f5f5f60a08688031215612a9c57612a9b612576565b5b5f612aa9888289016125c4565b9550506020612aba888289016125c4565b945050604086013567ffffffffffffffff811115612adb57612ada61257a565b5b612ae7888289016129a6565b935050606086013567ffffffffffffffff811115612b0857612b0761257a565b5b612b14888289016129a6565b925050608086013567ffffffffffffffff811115612b3557612b3461257a565b5b612b4188828901612a56565b9150509295509295909350565b612b57816126f1565b8114612b61575f5ffd5b50565b5f81359050612b7281612b4e565b92915050565b5f5f60408385031215612b8e57612b8d612576565b5b5f612b9b85828601612b64565b9250506020612bac858286016125f7565b9150509250929050565b5f60208284031215612bcb57612bca612576565b5b5f612bd884828501612b64565b91505092915050565b5f67ffffffffffffffff821115612bfb57612bfa612897565b5b602082029050602081019050919050565b5f612c1e612c1984612be1565b6128f5565b90508083825260208201905060208402830185811115612c4157612c4061293a565b5b835b81811015612c6a5780612c5688826125c4565b845260208401935050602081019050612c43565b5050509392505050565b5f82601f830112612c8857612c87612893565b5b8135612c98848260208601612c0c565b91505092915050565b5f5f60408385031215612cb757612cb6612576565b5b5f83013567ffffffffffffffff811115612cd457612cd361257a565b5b612ce085828601612c74565b925050602083013567ffffffffffffffff811115612d0157612d0061257a565b5b612d0d858286016129a6565b9150509250929050565b5f81519050919050565b5f82825260208201905092915050565b5f819050602082019050919050565b612d49816125d8565b82525050565b5f612d5a8383612d40565b60208301905092915050565b5f602082019050919050565b5f612d7c82612d17565b612d868185612d21565b9350612d9183612d31565b805f5b83811015612dc1578151612da88882612d4f565b9750612db383612d66565b925050600181019050612d94565b5085935050505092915050565b5f6020820190508181035f830152612de68184612d72565b905092915050565b5f5f60408385031215612e0457612e03612576565b5b5f612e11858286016125c4565b9250506020612e2285828601612b64565b9150509250929050565b5f5f60408385031215612e4257612e41612576565b5b5f612e4f858286016125c4565b9250506020612e60858286016125c4565b9150509250929050565b5f5f5f5f5f60a08688031215612e8357612e82612576565b5b5f612e90888289016125c4565b9550506020612ea1888289016125c4565b9450506040612eb2888289016125f7565b9350506060612ec3888289016125f7565b925050608086013567ffffffffffffffff811115612ee457612ee361257a565b5b612ef088828901612a56565b9150509295509295909350565b7f4e487b71000000000000000000000000000000000000000000000000000000005f52602260045260245ffd5b5f6002820490506001821680612f4157607f821691505b602082108103612f5457612f53612efd565b5b50919050565b5f604082019050612f6d5f830185612724565b612f7a6020830184612724565b9392505050565b7f4e487b71000000000000000000000000000000000000000000000000000000005f52601160045260245ffd5b5f612fb8826125d8565b9150612fc3836125d8565b9250828203905081811115612fdb57612fda612f81565b5b92915050565b5f604082019050612ff45f830185612649565b6130016020830184612649565b9392505050565b7f4e487b71000000000000000000000000000000000000000000000000000000005f52601260045260245ffd5b5f61303f826125d8565b915061304a836125d8565b92508261305a57613059613008565b5b828204905092915050565b7f4e487b71000000000000000000000000000000000000000000000000000000005f52603260045260245ffd5b5f6040820190506130a55f8301856126fc565b6130b26020830184612649565b9392505050565b5f6130c3826125d8565b91506130ce836125d8565b92508282019050808211156130e6576130e5612f81565b5b92915050565b5f6130f6826125d8565b9150613101836125d8565b925082820261310f816125d8565b9150828204841483151761312657613125612f81565b5b5092915050565b5f6080820190508181035f83015261314581876127af565b90506131546020830186612724565b818103604083015261316681856127af565b9050818103606083015261317a81846127af565b905095945050505050565b5f6080820190508181035f83015261319d81876127af565b90506131ac6020830186612649565b81810360408301526131be81856127af565b90506131cd6060830184612649565b95945050505050565b5f6080820190506131e95f830187612724565b6131f66020830186612649565b6132036040830185612649565b6132106060830184612649565b95945050505050565b5f6040820190508181035f8301526132318185612d72565b905081810360208301526132458184612d72565b90509392505050565b5f81519050919050565b5f82825260208201905092915050565b5f6132728261324e565b61327c8185613258565b935061328c818560208601612791565b6132958161279f565b840191505092915050565b5f60a0820190506132b35f830188612724565b6132c06020830187612724565b6132cd6040830186612649565b6132da6060830185612649565b81810360808301526132ec8184613268565b90509695505050505050565b5f815190506133068161269c565b92915050565b5f6020828403121561332157613320612576565b5b5f61332e848285016132f8565b91505092915050565b5f60a08201905061334a5f830188612724565b6133576020830187612724565b81810360408301526133698186612d72565b9050818103606083015261337d8185612d72565b905081810360808301526133918184613268565b90509695505050505050565b7f4e487b71000000000000000000000000000000000000000000000000000000005f52605160045260245ffdfea26469706673582212205cde47fec4d054c72d582f655d9196fae62d67491884b2dff1461fb41ec3817564736f6c634300081c0033",
  "linkReferences": {},
  "deployedLinkReferences": {},
  "immutableReferences": {
    "14259": [
      {
        "length": 32,
        "start": 1960
      }
    ],
    "14261": [
      {
        "length": 32,
        "start": 1996
      },
      {
        "length": 32,
        "start": 3187
      }
    ],
    "14267": [
      {
        "length": 32,
        "start": 3559
      },
      {
        "length": 32,
        "start": 5100
      }
    ],
    "14269": [
      {
        "length": 32,
        "start": 3427
      },
      {
        "length": 32,
        "start": 4568
      }
    ]
  },
  "inputSourceName": "project/contracts/Market.sol",
  "buildInfoId": "solc-0_8_28-0a95bbb6600fdcc2d17a29b2cc760c060ef934de"
}